{
  "_format": "hh-sol-artifact-1",
  "contractName": "PayrollManager",
  "sourceName": "contracts/PayrollManager.sol",
  "abi": [
    {
      "inputs": [],
      "name": "DistributionAlreadyExecuted",
      "type": "error"
    },
    {
      "inputs": [],
      "name": "DistributionNotFound",
      "type": "error"
    },
    {
      "inputs": [],
      "name": "InvalidParameters",
      "type": "error"
    },
    {
      "inputs": [],
      "name": "MemberAlreadyExists",
      "type": "error"
    },
    {
      "inputs": [],
      "name": "MemberNotFound",
      "type": "error"
    },
    {
      "inputs": [],
      "name": "OrganizationAlreadyExists",
      "type": "error"
    },
    {
      "inputs": [],
      "name": "OrganizationNotFound",
      "type": "error"
    },
    {
      "inputs": [],
      "name": "Unauthorized",
      "type": "error"
    },
    {
      "anonymous": false,
      "inputs": [
        {
          "indexed": true,
          "internalType": "bytes32",
          "name": "organizationId",
          "type": "bytes32"
        },
        {
          "indexed": true,
          "internalType": "address",
          "name": "memberAddress",
          "type": "address"
        },
        {
          "indexed": false,
          "internalType": "string",
          "name": "memberName",
          "type": "string"
        },
        {
          "indexed": false,
          "internalType": "string",
          "name": "role",
          "type": "string"
        },
        {
          "indexed": false,
          "internalType": "uint256",
          "name": "timestamp",
          "type": "uint256"
        }
      ],
      "name": "MemberAdded",
      "type": "event"
    },
    {
      "anonymous": false,
      "inputs": [
        {
          "indexed": true,
          "internalType": "bytes32",
          "name": "organizationId",
          "type": "bytes32"
        },
        {
          "indexed": true,
          "internalType": "address",
          "name": "memberAddress",
          "type": "address"
        },
        {
          "indexed": false,
          "internalType": "uint256",
          "name": "timestamp",
          "type": "uint256"
        }
      ],
      "name": "MemberRemoved",
      "type": "event"
    },
    {
      "anonymous": false,
      "inputs": [
        {
          "indexed": true,
          "internalType": "bytes32",
          "name": "organizationId",
          "type": "bytes32"
        },
        {
          "indexed": false,
          "internalType": "string",
          "name": "organizationName",
          "type": "string"
        },
        {
          "indexed": true,
          "internalType": "address",
          "name": "owner",
          "type": "address"
        },
        {
          "indexed": false,
          "internalType": "uint256",
          "name": "timestamp",
          "type": "uint256"
        }
      ],
      "name": "OrganizationCreated",
      "type": "event"
    },
    {
      "anonymous": false,
      "inputs": [
        {
          "indexed": true,
          "internalType": "bytes32",
          "name": "distributionId",
          "type": "bytes32"
        },
        {
          "indexed": true,
          "internalType": "bytes32",
          "name": "organizationId",
          "type": "bytes32"
        },
        {
          "indexed": false,
          "internalType": "uint256",
          "name": "timestamp",
          "type": "uint256"
        }
      ],
      "name": "PayrollDistributionCancelled",
      "type": "event"
    },
    {
      "anonymous": false,
      "inputs": [
        {
          "indexed": true,
          "internalType": "bytes32",
          "name": "distributionId",
          "type": "bytes32"
        },
        {
          "indexed": true,
          "internalType": "bytes32",
          "name": "organizationId",
          "type": "bytes32"
        },
        {
          "indexed": true,
          "internalType": "address",
          "name": "initiator",
          "type": "address"
        },
        {
          "indexed": false,
          "internalType": "uint256",
          "name": "timestamp",
          "type": "uint256"
        }
      ],
      "name": "PayrollDistributionCreated",
      "type": "event"
    },
    {
      "anonymous": false,
      "inputs": [
        {
          "indexed": true,
          "internalType": "bytes32",
          "name": "distributionId",
          "type": "bytes32"
        },
        {
          "indexed": true,
          "internalType": "bytes32",
          "name": "organizationId",
          "type": "bytes32"
        },
        {
          "indexed": false,
          "internalType": "uint256",
          "name": "timestamp",
          "type": "uint256"
        }
      ],
      "name": "PayrollDistributionExecuted",
      "type": "event"
    },
    {
      "inputs": [
        {
          "internalType": "bytes32",
          "name": "organizationId",
          "type": "bytes32"
        },
        {
          "internalType": "address",
          "name": "memberAddress",
          "type": "address"
        },
        {
          "internalType": "string",
          "name": "memberName",
          "type": "string"
        },
        {
          "internalType": "string",
          "name": "role",
          "type": "string"
        },
        {
          "internalType": "externalEuint64",
          "name": "encryptedMonthlySalary",
          "type": "bytes32"
        },
        {
          "internalType": "bytes",
          "name": "inputProof",
          "type": "bytes"
        }
      ],
      "name": "addTeamMember",
      "outputs": [],
      "stateMutability": "nonpayable",
      "type": "function"
    },
    {
      "inputs": [
        {
          "internalType": "uint256",
          "name": "",
          "type": "uint256"
        }
      ],
      "name": "allDistributions",
      "outputs": [
        {
          "internalType": "bytes32",
          "name": "",
          "type": "bytes32"
        }
      ],
      "stateMutability": "view",
      "type": "function"
    },
    {
      "inputs": [
        {
          "internalType": "uint256",
          "name": "",
          "type": "uint256"
        }
      ],
      "name": "allOrganizations",
      "outputs": [
        {
          "internalType": "bytes32",
          "name": "",
          "type": "bytes32"
        }
      ],
      "stateMutability": "view",
      "type": "function"
    },
    {
      "inputs": [
        {
          "internalType": "bytes32",
          "name": "distributionId",
          "type": "bytes32"
        }
      ],
      "name": "cancelPayrollDistribution",
      "outputs": [],
      "stateMutability": "nonpayable",
      "type": "function"
    },
    {
      "inputs": [
        {
          "internalType": "bytes32",
          "name": "organizationId",
          "type": "bytes32"
        },
        {
          "internalType": "string",
          "name": "organizationName",
          "type": "string"
        }
      ],
      "name": "createOrganization",
      "outputs": [],
      "stateMutability": "nonpayable",
      "type": "function"
    },
    {
      "inputs": [
        {
          "internalType": "bytes32",
          "name": "distributionId",
          "type": "bytes32"
        },
        {
          "internalType": "bytes32",
          "name": "organizationId",
          "type": "bytes32"
        },
        {
          "internalType": "address",
          "name": "memberAddress",
          "type": "address"
        },
        {
          "internalType": "externalEuint32",
          "name": "encryptedPeriod",
          "type": "bytes32"
        },
        {
          "internalType": "bytes",
          "name": "inputProof",
          "type": "bytes"
        }
      ],
      "name": "createPayrollDistribution",
      "outputs": [],
      "stateMutability": "nonpayable",
      "type": "function"
    },
    {
      "inputs": [],
      "name": "distributionCount",
      "outputs": [
        {
          "internalType": "uint256",
          "name": "",
          "type": "uint256"
        }
      ],
      "stateMutability": "view",
      "type": "function"
    },
    {
      "inputs": [
        {
          "internalType": "bytes32",
          "name": "",
          "type": "bytes32"
        }
      ],
      "name": "distributions",
      "outputs": [
        {
          "internalType": "bytes32",
          "name": "distributionId",
          "type": "bytes32"
        },
        {
          "internalType": "bytes32",
          "name": "organizationId",
          "type": "bytes32"
        },
        {
          "internalType": "euint64",
          "name": "encryptedRecipientHash",
          "type": "bytes32"
        },
        {
          "internalType": "euint64",
          "name": "encryptedMemberIndex",
          "type": "bytes32"
        },
        {
          "internalType": "euint64",
          "name": "encryptedAmount",
          "type": "bytes32"
        },
        {
          "internalType": "euint32",
          "name": "encryptedCurrency",
          "type": "bytes32"
        },
        {
          "internalType": "euint32",
          "name": "encryptedPeriod",
          "type": "bytes32"
        },
        {
          "internalType": "address",
          "name": "initiator",
          "type": "address"
        },
        {
          "internalType": "uint256",
          "name": "createdAt",
          "type": "uint256"
        },
        {
          "internalType": "uint256",
          "name": "executedAt",
          "type": "uint256"
        },
        {
          "internalType": "bool",
          "name": "isExecuted",
          "type": "bool"
        },
        {
          "internalType": "bool",
          "name": "isCancelled",
          "type": "bool"
        }
      ],
      "stateMutability": "view",
      "type": "function"
    },
    {
      "inputs": [
        {
          "internalType": "bytes32",
          "name": "distributionId",
          "type": "bytes32"
        }
      ],
      "name": "executePayrollDistribution",
      "outputs": [],
      "stateMutability": "nonpayable",
      "type": "function"
    },
    {
      "inputs": [
        {
          "internalType": "bytes32",
          "name": "distributionId",
          "type": "bytes32"
        }
      ],
      "name": "getDistribution",
      "outputs": [
        {
          "internalType": "bytes32",
          "name": "organizationId",
          "type": "bytes32"
        },
        {
          "internalType": "address",
          "name": "initiator",
          "type": "address"
        },
        {
          "internalType": "uint256",
          "name": "createdAt",
          "type": "uint256"
        },
        {
          "internalType": "uint256",
          "name": "executedAt",
          "type": "uint256"
        },
        {
          "internalType": "bool",
          "name": "isExecuted",
          "type": "bool"
        },
        {
          "internalType": "bool",
          "name": "isCancelled",
          "type": "bool"
        }
      ],
      "stateMutability": "view",
      "type": "function"
    },
    {
      "inputs": [
        {
          "internalType": "bytes32",
          "name": "distributionId",
          "type": "bytes32"
        }
      ],
      "name": "getEncryptedDistributionData",
      "outputs": [
        {
          "internalType": "euint64",
          "name": "encryptedRecipientHash",
          "type": "bytes32"
        },
        {
          "internalType": "euint64",
          "name": "encryptedMemberIndex",
          "type": "bytes32"
        },
        {
          "internalType": "euint64",
          "name": "encryptedAmount",
          "type": "bytes32"
        },
        {
          "internalType": "euint32",
          "name": "encryptedCurrency",
          "type": "bytes32"
        },
        {
          "internalType": "euint32",
          "name": "encryptedPeriod",
          "type": "bytes32"
        }
      ],
      "stateMutability": "view",
      "type": "function"
    },
    {
      "inputs": [
        {
          "internalType": "address",
          "name": "member",
          "type": "address"
        }
      ],
      "name": "getMemberOrganizations",
      "outputs": [
        {
          "internalType": "bytes32[]",
          "name": "",
          "type": "bytes32[]"
        }
      ],
      "stateMutability": "view",
      "type": "function"
    },
    {
      "inputs": [
        {
          "internalType": "bytes32",
          "name": "organizationId",
          "type": "bytes32"
        }
      ],
      "name": "getOrganization",
      "outputs": [
        {
          "internalType": "string",
          "name": "organizationName",
          "type": "string"
        },
        {
          "internalType": "address",
          "name": "owner",
          "type": "address"
        },
        {
          "internalType": "uint256",
          "name": "createdAt",
          "type": "uint256"
        },
        {
          "internalType": "uint256",
          "name": "memberCount",
          "type": "uint256"
        },
        {
          "internalType": "bool",
          "name": "isActive",
          "type": "bool"
        }
      ],
      "stateMutability": "view",
      "type": "function"
    },
    {
      "inputs": [
        {
          "internalType": "bytes32",
          "name": "organizationId",
          "type": "bytes32"
        }
      ],
      "name": "getOrganizationDistributions",
      "outputs": [
        {
          "internalType": "bytes32[]",
          "name": "",
          "type": "bytes32[]"
        }
      ],
      "stateMutability": "view",
      "type": "function"
    },
    {
      "inputs": [
        {
          "internalType": "bytes32",
          "name": "organizationId",
          "type": "bytes32"
        }
      ],
      "name": "getOrganizationMembers",
      "outputs": [
        {
          "internalType": "address[]",
          "name": "",
          "type": "address[]"
        }
      ],
      "stateMutability": "view",
      "type": "function"
    },
    {
      "inputs": [
        {
          "internalType": "address",
          "name": "owner",
          "type": "address"
        }
      ],
      "name": "getOwnerOrganizations",
      "outputs": [
        {
          "internalType": "bytes32[]",
          "name": "",
          "type": "bytes32[]"
        }
      ],
      "stateMutability": "view",
      "type": "function"
    },
    {
      "inputs": [
        {
          "internalType": "bytes32",
          "name": "organizationId",
          "type": "bytes32"
        },
        {
          "internalType": "address",
          "name": "memberAddress",
          "type": "address"
        }
      ],
      "name": "getTeamMember",
      "outputs": [
        {
          "internalType": "string",
          "name": "memberName",
          "type": "string"
        },
        {
          "internalType": "string",
          "name": "role",
          "type": "string"
        },
        {
          "internalType": "uint256",
          "name": "joinedAt",
          "type": "uint256"
        },
        {
          "internalType": "bool",
          "name": "isActive",
          "type": "bool"
        }
      ],
      "stateMutability": "view",
      "type": "function"
    },
    {
      "inputs": [
        {
          "internalType": "address",
          "name": "",
          "type": "address"
        },
        {
          "internalType": "uint256",
          "name": "",
          "type": "uint256"
        }
      ],
      "name": "initiatorDistributions",
      "outputs": [
        {
          "internalType": "bytes32",
          "name": "",
          "type": "bytes32"
        }
      ],
      "stateMutability": "view",
      "type": "function"
    },
    {
      "inputs": [
        {
          "internalType": "address",
          "name": "",
          "type": "address"
        },
        {
          "internalType": "uint256",
          "name": "",
          "type": "uint256"
        }
      ],
      "name": "memberOrganizations",
      "outputs": [
        {
          "internalType": "bytes32",
          "name": "",
          "type": "bytes32"
        }
      ],
      "stateMutability": "view",
      "type": "function"
    },
    {
      "inputs": [],
      "name": "organizationCount",
      "outputs": [
        {
          "internalType": "uint256",
          "name": "",
          "type": "uint256"
        }
      ],
      "stateMutability": "view",
      "type": "function"
    },
    {
      "inputs": [
        {
          "internalType": "bytes32",
          "name": "",
          "type": "bytes32"
        },
        {
          "internalType": "uint256",
          "name": "",
          "type": "uint256"
        }
      ],
      "name": "organizationDistributions",
      "outputs": [
        {
          "internalType": "bytes32",
          "name": "",
          "type": "bytes32"
        }
      ],
      "stateMutability": "view",
      "type": "function"
    },
    {
      "inputs": [
        {
          "internalType": "bytes32",
          "name": "",
          "type": "bytes32"
        },
        {
          "internalType": "uint256",
          "name": "",
          "type": "uint256"
        }
      ],
      "name": "organizationMemberList",
      "outputs": [
        {
          "internalType": "address",
          "name": "",
          "type": "address"
        }
      ],
      "stateMutability": "view",
      "type": "function"
    },
    {
      "inputs": [
        {
          "internalType": "bytes32",
          "name": "",
          "type": "bytes32"
        },
        {
          "internalType": "address",
          "name": "",
          "type": "address"
        }
      ],
      "name": "organizationMembers",
      "outputs": [
        {
          "internalType": "address",
          "name": "memberAddress",
          "type": "address"
        },
        {
          "internalType": "string",
          "name": "memberName",
          "type": "string"
        },
        {
          "internalType": "string",
          "name": "role",
          "type": "string"
        },
        {
          "internalType": "bytes32",
          "name": "organizationId",
          "type": "bytes32"
        },
        {
          "internalType": "euint64",
          "name": "encryptedMonthlySalary",
          "type": "bytes32"
        },
        {
          "internalType": "uint256",
          "name": "joinedAt",
          "type": "uint256"
        },
        {
          "internalType": "bool",
          "name": "isActive",
          "type": "bool"
        }
      ],
      "stateMutability": "view",
      "type": "function"
    },
    {
      "inputs": [
        {
          "internalType": "bytes32",
          "name": "",
          "type": "bytes32"
        }
      ],
      "name": "organizations",
      "outputs": [
        {
          "internalType": "bytes32",
          "name": "organizationId",
          "type": "bytes32"
        },
        {
          "internalType": "string",
          "name": "organizationName",
          "type": "string"
        },
        {
          "internalType": "address",
          "name": "owner",
          "type": "address"
        },
        {
          "internalType": "uint256",
          "name": "createdAt",
          "type": "uint256"
        },
        {
          "internalType": "uint256",
          "name": "memberCount",
          "type": "uint256"
        },
        {
          "internalType": "bool",
          "name": "isActive",
          "type": "bool"
        }
      ],
      "stateMutability": "view",
      "type": "function"
    },
    {
      "inputs": [
        {
          "internalType": "address",
          "name": "",
          "type": "address"
        },
        {
          "internalType": "uint256",
          "name": "",
          "type": "uint256"
        }
      ],
      "name": "ownerOrganizations",
      "outputs": [
        {
          "internalType": "bytes32",
          "name": "",
          "type": "bytes32"
        }
      ],
      "stateMutability": "view",
      "type": "function"
    },
    {
      "inputs": [],
      "name": "protocolId",
      "outputs": [
        {
          "internalType": "uint256",
          "name": "",
          "type": "uint256"
        }
      ],
      "stateMutability": "pure",
      "type": "function"
    },
    {
      "inputs": [
        {
          "internalType": "bytes32",
          "name": "organizationId",
          "type": "bytes32"
        },
        {
          "internalType": "address",
          "name": "memberAddress",
          "type": "address"
        }
      ],
      "name": "removeTeamMember",
      "outputs": [],
      "stateMutability": "nonpayable",
      "type": "function"
    },
    {
      "inputs": [],
      "name": "totalMemberCount",
      "outputs": [
        {
          "internalType": "uint256",
          "name": "",
          "type": "uint256"
        }
      ],
      "stateMutability": "view",
      "type": "function"
    }
  ],
  "bytecode": "0x608060405234610154575f6060610014610158565b828152826020820152826040820152015261002d610158565b606073687820221192c5b662b25367f70076a37bc79b6c9182815273848b0066793bcc60346da1f49049357399b8d59580602083015273a02cda4ca3a71d7c46997716f4283aa851c2881291826040820152731364cbbf2cdf5032c47d8226a6f6fbd2afcdacac938491015260018060a01b0319937f9e7b61f58c47dc699ac88507c4f5bb9f121c03808c5676a8078fe583e464970090858254161790557f9e7b61f58c47dc699ac88507c4f5bb9f121c03808c5676a8078fe583e464970190848254161790557f9e7b61f58c47dc699ac88507c4f5bb9f121c03808c5676a8078fe583e464970290838254161790557f9e7b61f58c47dc699ac88507c4f5bb9f121c03808c5676a8078fe583e464970391825416179055604051611f78908161018c8239f35b5f80fd5b60405190608082016001600160401b0381118382101761017757604052565b634e487b7160e01b5f52604160045260245ffdfe6080806040526004361015610012575f80fd5b5f3560e01c908162600e1c14611b1b5750806311f0661a14611aa057806322b3cd4e14611a23578063387ae2df146119ae5780635cc94a041461196657806367dd0e0b146118f35780637271608d1461187d57806374237464146117a9578063830c1bcc1461177a578063861aa0dc146116c25780638bbb34d9146116a557806390b439151461165c57806398162f8114611613578063ba51b14e1461158d578063be20148114610f3d578063c1f8218a14610e8b578063c65c3d9514610e6e578063ca4adfef14610dc6578063cf06b55214610af0578063d01ef85514610a59578063d722868714610442578063d937c55d146103eb578063da1f12ab146103cf578063dd0e62151461031b578063de0cd823146102a3578063f0977bae14610253578063f1c62104146102365763f7b057201461014f575f80fd5b3461023257602036600319011261023257600435805f52600660205260405f209060088201541561022057600a82019182549260ff84168015610213575b61020157600182015493845f525f60205260018060a01b03600260405f2001541633036101f05760019060ff19161790556009429101557fbd4614beaa4d4369f9bc3e3d0467b668faf04224a9a7f8024a3de8e5c8cbd4896020604051428152a3005b6040516282b42960e81b8152600490fd5b6040516375e27e9b60e01b8152600490fd5b5060ff8460081c1661018d565b604051633a35c2f960e01b8152600490fd5b5f80fd5b34610232575f366003190112610232576020600a54604051908152f35b34610232576020366003190112610232576004356009548110156102325760209060095f527f6e1540171b6c0c960b71a7020d9f60077f6af931a8bbf590da0223dacf75c7af0154604051908152f35b3461023257602080600319360112610232576004355f52600760205260405f20906040519081602084549182815201935f5260205f20915f905b82821061030457610300856102f481890382611c83565b60405191829182611be7565b0390f35b8354865294850194600193840193909101906102dd565b34610232576020366003190112610232576004355f52600660205261018060405f2060ff815491600181015490600281015460038201546004830154600584015460068501549160018060a01b0360078701541693600887015495600a6009890154980154986040519b8c5260208c015260408b015260608a0152608089015260a088015260c087015260e0860152610100850152610120840152818116151561014084015260081c161515610160820152f35b34610232575f3660031901126102325760206040516127118152f35b3461023257604036600319011261023257610404611bbb565b6001600160a01b03165f908152600560205260409020805460243591908210156102325760209161043491611b68565b90546040519160031b1c8152f35b346102325760a0366003190112610232576044356001600160a01b0381168103610232576084356001600160401b03811161023257610485903690600401611d46565b6024929192355f525f60205260ff600560405f2001541615610a47576024355f908152602081905260409020600201546001600160a01b031633036101f0576004355f526006602052600860405f200154610a35576024355f52600360205260405f2060018060a01b0383165f5260205260405f209060ff60068301541615610a235761056861051a5f956020933691611d7f565b5f80516020611f238339815191525460405163196d0b9b60e01b81526064356004820152336024820152608060448201529687936001600160a01b0390921692849283916084830190611b7d565b6004606483015203925af192831561099d575f936109ef575b507f9e7b61f58c47dc699ac88507c4f5bb9f121c03808c5676a8078fe583e4649700546001600160a01b031690813b1561023257604051630f8e573b60e21b815260048101859052336024820152915f908390604490829084905af191821561099d576004926109e0575b506105f73085611e26565b6106013385611e26565b0154916106226001600160401b036001600160a01b03841681900616611ea0565b9261062d3085611e26565b6106373385611e26565b6024355f52600460205260405f20604051808260208294549384815201905f5260205f20925f5b8181106109be57505061067392500382611c83565b5f935f5b82516001600160401b03821610156109a8576020681fffffffffffffffe0600583901b16840101516001600160a01b038381169116146106e4576001600160401b03166001600160401b0381146106d057600101610677565b634e487b7160e01b5f52601160045260245ffd5b5f9495506106fe92506001600160401b0391505b16611ea0565b6107083082611e26565b6107123382611e26565b602060018060a01b035f80516020611f238339815191525416604460405180968193639cd07acb60e01b835260016004840152600460248401525af192831561099d575f93610969575b506107673084611e26565b6107713384611e26565b604051906101808201928284106001600160401b038511176109555761086e94600a9460405260043584526020840196602435885260408501988952606085019384526080850192835260a0850191825260c0850190815260e08501913383526101008601934285526101208701955f875261014088019b5f8d5261016089019b5f8d526004355f52600660205260405f2099518a555160018a0155516002890155516003880155516004870155516005860155516006850155600784019060018060a01b039051166001600160601b0360a01b8254161790555160088301555160098201550192511515839060ff801983541691151516179055565b51151561ff0082549160081b169061ff0019161790556024355f52600760205261089d60043560405f20611dc4565b335f5260086020526108b460043560405f20611dc4565b600954600160401b8110156109555760018101806009558110156109415760095f52600435907f6e1540171b6c0c960b71a7020d9f60077f6af931a8bbf590da0223dacf75c7af0155610908600c54611df8565b600c556040514281523390602435907fe354800b3e577df9244dbc7555b5df55dd79181b799fbbd67cf5d6f7013915d0602060043592a4005b634e487b7160e01b5f52603260045260245ffd5b634e487b7160e01b5f52604160045260245ffd5b9092506020813d602011610995575b8161098560209383611c83565b810103126102325751918561075c565b3d9150610978565b6040513d5f823e3d90fd5b5050506106fe6001600160401b035f93946106f8565b84546001600160a01b031683526001948501948694506020909301920161065e565b6109e990611c70565b846105ec565b9092506020813d602011610a1b575b81610a0b60209383611c83565b8101031261023257519183610581565b3d91506109fe565b604051631fdd7d6360e01b8152600490fd5b604051630e52390960e41b8152600490fd5b604051639551f8b360e01b8152600490fd5b3461023257604036600319011261023257610a72611bd1565b6004355f52600360205260405f209060018060a01b03165f52602052610ad160405f20600581015460ff600683015416610adf610abd6002610ab660018701611ca4565b9501611ca4565b604051958695608087526080870190611b7d565b908582036020870152611b7d565b916040840152151560608301520390f35b34610232576040366003190112610232576001600160401b0360243581811161023257610b21903690600401611d46565b916004355f525f602052600360405f200154610db4578215610a355760405160c0810181811083821117610955576040526004358152610b62368585611d7f565b91602082019283523360408301524260608301525f6080830152600160a08301526004355f525f60205260405f20928251845551805191821161095557610bac6001850154611c38565b601f8111610d70575b50602090601f8311600114610cfd57928260059360a093610c3a97965f92610cf2575b50508160011b915f199060031b1c19161760018501555b60028401600180841b036040830151166001600160601b03841b82541617905560608101516003850155608081015160048501550151151591019060ff801983541691151516179055565b335f526001602052610c5160043560405f20611dc4565b60025490600160401b82101561095557600182018060025582101561094157610cbf9160025f52600435907f405787fa12a823e0f2b7631cc41b3ba8828b3321ca811111fa75cd3aa3bb5ace0155610caa600a54611df8565b600a5560405192604084526040840191611e06565b4260208301527f2a958f59d3b0290f8dea7ac522389a7a1c1805c48d033d76fa6d2dadc4bea05a339280600435930390a3005b015190508980610bd8565b90601f19831691600186015f5260205f20925f5b818110610d5857509360a093610c3a9796936001938360059810610d40575b505050811b016001850155610bef565b01515f1960f88460031b161c19169055898080610d30565b92936020600181928786015181550195019301610d11565b600185015f5260205f20601f840160051c810160208510610dad575b601f830160051c82018110610da2575050610bb5565b5f8155600101610d8c565b5080610d8c565b6040516369c24f0b60e01b8152600490fd5b3461023257602036600319011261023257600435805f52600660205260405f209060088201541561022057600a820180549260ff84168015610e61575b610201576001015492835f525f60205260018060a01b03600260405f2001541633036101f0576101009061ff0019161790557f5cbff5a060465c4a5311cd7589cb5fba16377720d054435db4a15f520bffadde6020604051428152a3005b5060ff8460081c16610e03565b34610232575f366003190112610232576020600c54604051908152f35b3461023257602080600319360112610232576004355f526004815260405f20604051908183825491828152019081925f52845f20905f5b86828210610f20578686610ed882880383611c83565b60405192839281840190828552518091526040840192915f5b828110610f0057505050500390f35b83516001600160a01b031685528695509381019392810192600101610ef1565b83546001600160a01b031685529093019260019283019201610ec2565b346102325760c036600319011261023257610f56611bd1565b6044356001600160401b03811161023257610f75903690600401611d46565b91906064356001600160401b03811161023257610f96903690600401611d46565b9060a4356001600160401b03811161023257610fb6903690600401611d46565b6004355f525f60205260ff600560405f2001541615610a47576004355f908152602081905260409020600201546001600160a01b031633036101f0576001600160a01b03861615610a35576004355f52600360205260405f2060018060a01b0387165f52602052600560405f20015461157b5761108561103b5f936020933691611d7f565b60018060a01b035f80516020611f2383398151915254169060405194858094819363196d0b9b60e01b83526084356004840152336024840152608060448401526084830190611b7d565b6005606483015203925af190811561099d575f91611549575b507f9e7b61f58c47dc699ac88507c4f5bb9f121c03808c5676a8078fe583e4649700546001600160a01b0316803b1561023257604051630f8e573b60e21b815260048101839052336024820152905f908290604490829084905af1801561099d5761153a575b5061110f3082611e26565b6111193382611e26565b6111238582611e26565b60405160e081018181106001600160401b03821117610955576040526001600160a01b0386168152611156368887611d7f565b9160208201928352611169368686611d7f565b6040830152600435606083015260808201524260a0820152600160c08201526004355f52600360205260405f2060018060a01b0387165f5260205260405f209160018060a01b038251166001600160601b0360a01b845416178355518051906001600160401b0382116109555781906111e56001860154611c38565b601f81116114ea575b50602090601f831160011461147c575f92611471575b50508160011b915f199060031b1c19161760018301555b60408101518051906001600160401b0382116109555761123e6002850154611c38565b601f811161142d575b50602090601f83116001146113b857928260069360c0936112b697965f926113ad575b50508160011b915f199060031b1c19161760028501555b606081015160038501556080810151600485015560a081015160058501550151151591019060ff801983541691151516179055565b6004355f52600460205260405f20918254600160401b811015610955577f6fc07adcdb9027bf72ddbbc0d9f76f9c953e14fb8fdda2469aa298969052f06e9461130b8261139096600161138295018155611b68565b81546001600160a01b038a811660039390931b83811b91901b19909116179091555f9081526005602052604090206113469060043590611dc4565b6004355f525f602052600460405f20016113608154611df8565b905561136d600b54611df8565b600b5560405197606089526060890191611e06565b918683036020880152611e06565b4260408501526001600160a01b03909216926004359281900390a3005b015190508c8061126a565b90600285015f5260205f20915f5b601f198516811061141557508360c0936112b6979693600193600697601f198116106113fd575b505050811b016002850155611281565b01515f1960f88460031b161c191690558c80806113ed565b919260206001819286850151815501940192016113c6565b600285015f5260205f20601f840160051c81016020851061146a575b601f830160051c8201811061145f575050611247565b5f8155600101611449565b5080611449565b015190508980611204565b9250600185015f5260205f20905f935b601f19841685106114cf576001945083601f198116106114b7575b505050811b01600183015561121b565b01515f1960f88460031b161c191690558980806114a7565b8181015183556020948501946001909301929091019061148c565b909150600185015f5260205f20601f840160051c810160208510611533575b90849392915b601f830160051c820181106115255750506111ee565b5f815585945060010161150f565b5080611509565b61154390611c70565b86611104565b90506020813d602011611573575b8161156460209383611c83565b8101031261023257518661109e565b3d9150611557565b60405163700a84a960e11b8152600490fd5b34610232576020366003190112610232576004355f525f60205260405f2080546115b960018301611ca4565b9160018060a01b036002820154169060038101549060ff6005600483015492015416916115f8604051968796875260c0602088015260c0870190611b7d565b93604086015260608501526080840152151560a08301520390f35b346102325760403660031901126102325761162c611bbb565b6001600160a01b03165f908152600160205260409020805460243591908210156102325760209161043491611b68565b3461023257604036600319011261023257611675611bbb565b6001600160a01b03165f908152600860205260409020805460243591908210156102325760209161043491611b68565b34610232575f366003190112610232576020600b54604051908152f35b34610232576040366003190112610232576116db611bd1565b6004355f52600360205260405f2060018060a01b038092165f5260205260405f209081541661170c60018301611ca4565b9161171960028201611ca4565b600382015491600481015461175f60ff600660058501549401541693611751604051988998895260e060208a015260e0890190611b7d565b908782036040890152611b7d565b936060860152608085015260a0840152151560c08301520390f35b346102325761178836611c22565b905f52600760205260405f2080548210156102325760209161043491611b68565b34610232576040366003190112610232576004356117c5611bd1565b90805f5260205f815260ff600560405f2001541615610a47575f82815280825260409020600201546001600160a01b0390811633036101f057825f526003825260405f20931692835f528152600660405f20019081549160ff831615610a23577f31bd20fe15001ee66b7528035447ad30c320a25815eb7d5de52d8e35ec2660009260ff19169055825f525f8152600460405f20016118648154611d73565b9055611871600b54611d73565b600b55604051428152a3005b3461023257602080600319360112610232576001600160a01b0361189f611bbb565b165f52600560205260405f20906040519081602084549182815201935f5260205f20915f905b8282106118dc57610300856102f481890382611c83565b8354865294850194600193840193909101906118c5565b34610232576020366003190112610232576004355f52600660205260c060405f2060ff60018201549160018060a01b03600782015416906008810154600a6009830154920154926040519586526020860152604085015260608401528181161515608084015260081c16151560a0820152f35b346102325761197436611c22565b905f52600460205260405f2080548210156102325760209161199591611b68565b905460405160039290921b1c6001600160a01b03168152f35b3461023257602080600319360112610232576001600160a01b036119d0611bbb565b165f5260018060205260405f20916040519182602085549182815201945f5260205f20925f905b828210611a0e57610300866102f4818a0382611c83565b845487529586019593830193908301906119f7565b34610232576020366003190112610232576004355f525f602052611a8560405f2060018060a01b036002820154166003820154916004810154611a70600160ff6005850154169301611ca4565b9360405195869560a0875260a0870190611b7d565b93602086015260408501526060840152151560808301520390f35b34610232576020366003190112610232576004355f52600660205260405f2060018101545f525f60205260018060a01b03600260405f2001541633036101f05780600260a092015490600381015490600481015460066005830154920154926040519485526020850152604084015260608301526080820152f35b3461023257602036600319011261023257600435906002548210156102325760209160025f527f405787fa12a823e0f2b7631cc41b3ba8828b3321ca811111fa75cd3aa3bb5ace01548152f35b8054821015610941575f5260205f2001905f90565b91908251928382525f5b848110611ba7575050825f602080949584010152601f8019910116010190565b602081830181015184830182015201611b87565b600435906001600160a01b038216820361023257565b602435906001600160a01b038216820361023257565b60209060206040818301928281528551809452019301915f5b828110611c0e575050505090565b835185529381019392810192600101611c00565b6040906003190112610232576004359060243590565b90600182811c92168015611c66575b6020831014611c5257565b634e487b7160e01b5f52602260045260245ffd5b91607f1691611c47565b6001600160401b03811161095557604052565b90601f801991011681019081106001600160401b0382111761095557604052565b9060405191825f8254611cb681611c38565b908184526020946001916001811690815f14611d245750600114611ce6575b505050611ce492500383611c83565b565b5f90815285812095935091905b818310611d0c575050611ce493508201015f8080611cd5565b85548884018501529485019487945091830191611cf3565b92505050611ce494925060ff191682840152151560051b8201015f8080611cd5565b9181601f84011215610232578235916001600160401b038311610232576020838186019501011161023257565b80156106d0575f190190565b9291926001600160401b0382116109555760405191611da8601f8201601f191660200184611c83565b829481845281830111610232578281602093845f960137010152565b8054600160401b81101561095557611de191600182018155611b68565b819291549060031b91821b915f19901b1916179055565b5f1981146106d05760010190565b908060209392818452848401375f828201840152601f01601f1916010190565b7f9e7b61f58c47dc699ac88507c4f5bb9f121c03808c5676a8078fe583e4649700546001600160a01b031691823b1561023257604051635ca4b5b160e11b815260048101929092526001600160a01b03166024820152905f908290604490829084905af1801561099d57611e975750565b611ce490611c70565b5f80516020611f2383398151915254604051639cd07acb60e01b8152600481019290925260056024830152602090829060449082905f906001600160a01b03165af190811561099d575f91611ef3575090565b90506020813d602011611f1a575b81611f0e60209383611c83565b81010312610232575190565b3d9150611f0156fe9e7b61f58c47dc699ac88507c4f5bb9f121c03808c5676a8078fe583e4649701a2646970667358221220c3cdb628b0adc7998f5953f4573b2087eed908da1234d4ae759bce0afc295ded64736f6c63430008180033",
  "linkReferences": {},
  "deployedLinkReferences": {}
}