{
  "_format": "hh-sol-artifact-1",
  "contractName": "PayrollManager",
  "sourceName": "contracts/PayrollManager.sol",
  "abi": [
    {
      "inputs": [],
      "name": "DistributionAlreadyExecuted",
      "type": "error"
    },
    {
      "inputs": [],
      "name": "DistributionNotFound",
      "type": "error"
    },
    {
      "inputs": [],
      "name": "InvalidParameters",
      "type": "error"
    },
    {
      "inputs": [],
      "name": "MemberAlreadyExists",
      "type": "error"
    },
    {
      "inputs": [],
      "name": "MemberNotFound",
      "type": "error"
    },
    {
      "inputs": [],
      "name": "OrganizationAlreadyExists",
      "type": "error"
    },
    {
      "inputs": [],
      "name": "OrganizationNotFound",
      "type": "error"
    },
    {
      "inputs": [],
      "name": "Unauthorized",
      "type": "error"
    },
    {
      "anonymous": false,
      "inputs": [
        {
          "indexed": true,
          "internalType": "bytes32",
          "name": "organizationId",
          "type": "bytes32"
        },
        {
          "indexed": true,
          "internalType": "address",
          "name": "memberAddress",
          "type": "address"
        },
        {
          "indexed": false,
          "internalType": "string",
          "name": "memberName",
          "type": "string"
        },
        {
          "indexed": false,
          "internalType": "string",
          "name": "role",
          "type": "string"
        },
        {
          "indexed": false,
          "internalType": "uint256",
          "name": "timestamp",
          "type": "uint256"
        }
      ],
      "name": "MemberAdded",
      "type": "event"
    },
    {
      "anonymous": false,
      "inputs": [
        {
          "indexed": true,
          "internalType": "bytes32",
          "name": "organizationId",
          "type": "bytes32"
        },
        {
          "indexed": true,
          "internalType": "address",
          "name": "memberAddress",
          "type": "address"
        },
        {
          "indexed": false,
          "internalType": "uint256",
          "name": "timestamp",
          "type": "uint256"
        }
      ],
      "name": "MemberRemoved",
      "type": "event"
    },
    {
      "anonymous": false,
      "inputs": [
        {
          "indexed": true,
          "internalType": "bytes32",
          "name": "organizationId",
          "type": "bytes32"
        },
        {
          "indexed": false,
          "internalType": "string",
          "name": "organizationName",
          "type": "string"
        },
        {
          "indexed": true,
          "internalType": "address",
          "name": "owner",
          "type": "address"
        },
        {
          "indexed": false,
          "internalType": "uint256",
          "name": "timestamp",
          "type": "uint256"
        }
      ],
      "name": "OrganizationCreated",
      "type": "event"
    },
    {
      "anonymous": false,
      "inputs": [
        {
          "indexed": true,
          "internalType": "bytes32",
          "name": "distributionId",
          "type": "bytes32"
        },
        {
          "indexed": true,
          "internalType": "bytes32",
          "name": "organizationId",
          "type": "bytes32"
        },
        {
          "indexed": false,
          "internalType": "uint256",
          "name": "timestamp",
          "type": "uint256"
        }
      ],
      "name": "PayrollDistributionCancelled",
      "type": "event"
    },
    {
      "anonymous": false,
      "inputs": [
        {
          "indexed": true,
          "internalType": "bytes32",
          "name": "distributionId",
          "type": "bytes32"
        },
        {
          "indexed": true,
          "internalType": "bytes32",
          "name": "organizationId",
          "type": "bytes32"
        },
        {
          "indexed": true,
          "internalType": "address",
          "name": "initiator",
          "type": "address"
        },
        {
          "indexed": false,
          "internalType": "uint256",
          "name": "timestamp",
          "type": "uint256"
        }
      ],
      "name": "PayrollDistributionCreated",
      "type": "event"
    },
    {
      "anonymous": false,
      "inputs": [
        {
          "indexed": true,
          "internalType": "bytes32",
          "name": "distributionId",
          "type": "bytes32"
        },
        {
          "indexed": true,
          "internalType": "bytes32",
          "name": "organizationId",
          "type": "bytes32"
        },
        {
          "indexed": false,
          "internalType": "uint256",
          "name": "timestamp",
          "type": "uint256"
        }
      ],
      "name": "PayrollDistributionExecuted",
      "type": "event"
    },
    {
      "inputs": [
        {
          "internalType": "bytes32",
          "name": "organizationId",
          "type": "bytes32"
        },
        {
          "internalType": "address",
          "name": "memberAddress",
          "type": "address"
        },
        {
          "internalType": "string",
          "name": "memberName",
          "type": "string"
        },
        {
          "internalType": "string",
          "name": "role",
          "type": "string"
        }
      ],
      "name": "addTeamMember",
      "outputs": [],
      "stateMutability": "nonpayable",
      "type": "function"
    },
    {
      "inputs": [
        {
          "internalType": "uint256",
          "name": "",
          "type": "uint256"
        }
      ],
      "name": "allDistributions",
      "outputs": [
        {
          "internalType": "bytes32",
          "name": "",
          "type": "bytes32"
        }
      ],
      "stateMutability": "view",
      "type": "function"
    },
    {
      "inputs": [
        {
          "internalType": "uint256",
          "name": "",
          "type": "uint256"
        }
      ],
      "name": "allOrganizations",
      "outputs": [
        {
          "internalType": "bytes32",
          "name": "",
          "type": "bytes32"
        }
      ],
      "stateMutability": "view",
      "type": "function"
    },
    {
      "inputs": [
        {
          "internalType": "bytes32",
          "name": "distributionId",
          "type": "bytes32"
        }
      ],
      "name": "cancelPayrollDistribution",
      "outputs": [],
      "stateMutability": "nonpayable",
      "type": "function"
    },
    {
      "inputs": [
        {
          "internalType": "bytes32",
          "name": "organizationId",
          "type": "bytes32"
        },
        {
          "internalType": "string",
          "name": "organizationName",
          "type": "string"
        }
      ],
      "name": "createOrganization",
      "outputs": [],
      "stateMutability": "nonpayable",
      "type": "function"
    },
    {
      "inputs": [
        {
          "internalType": "bytes32",
          "name": "distributionId",
          "type": "bytes32"
        },
        {
          "internalType": "bytes32",
          "name": "organizationId",
          "type": "bytes32"
        },
        {
          "internalType": "externalEuint64",
          "name": "encryptedRecipientHash",
          "type": "bytes32"
        },
        {
          "internalType": "externalEuint64",
          "name": "encryptedMemberIndex",
          "type": "bytes32"
        },
        {
          "internalType": "externalEuint64",
          "name": "encryptedAmount",
          "type": "bytes32"
        },
        {
          "internalType": "externalEuint32",
          "name": "encryptedCurrency",
          "type": "bytes32"
        },
        {
          "internalType": "externalEuint32",
          "name": "encryptedPeriod",
          "type": "bytes32"
        },
        {
          "internalType": "bytes",
          "name": "inputProof",
          "type": "bytes"
        }
      ],
      "name": "createPayrollDistribution",
      "outputs": [],
      "stateMutability": "nonpayable",
      "type": "function"
    },
    {
      "inputs": [],
      "name": "distributionCount",
      "outputs": [
        {
          "internalType": "uint256",
          "name": "",
          "type": "uint256"
        }
      ],
      "stateMutability": "view",
      "type": "function"
    },
    {
      "inputs": [
        {
          "internalType": "bytes32",
          "name": "",
          "type": "bytes32"
        }
      ],
      "name": "distributions",
      "outputs": [
        {
          "internalType": "bytes32",
          "name": "distributionId",
          "type": "bytes32"
        },
        {
          "internalType": "bytes32",
          "name": "organizationId",
          "type": "bytes32"
        },
        {
          "internalType": "euint64",
          "name": "encryptedRecipientHash",
          "type": "bytes32"
        },
        {
          "internalType": "euint64",
          "name": "encryptedMemberIndex",
          "type": "bytes32"
        },
        {
          "internalType": "euint64",
          "name": "encryptedAmount",
          "type": "bytes32"
        },
        {
          "internalType": "euint32",
          "name": "encryptedCurrency",
          "type": "bytes32"
        },
        {
          "internalType": "euint32",
          "name": "encryptedPeriod",
          "type": "bytes32"
        },
        {
          "internalType": "address",
          "name": "initiator",
          "type": "address"
        },
        {
          "internalType": "uint256",
          "name": "createdAt",
          "type": "uint256"
        },
        {
          "internalType": "uint256",
          "name": "executedAt",
          "type": "uint256"
        },
        {
          "internalType": "bool",
          "name": "isExecuted",
          "type": "bool"
        },
        {
          "internalType": "bool",
          "name": "isCancelled",
          "type": "bool"
        }
      ],
      "stateMutability": "view",
      "type": "function"
    },
    {
      "inputs": [
        {
          "internalType": "bytes32",
          "name": "distributionId",
          "type": "bytes32"
        }
      ],
      "name": "executePayrollDistribution",
      "outputs": [],
      "stateMutability": "nonpayable",
      "type": "function"
    },
    {
      "inputs": [
        {
          "internalType": "bytes32",
          "name": "distributionId",
          "type": "bytes32"
        }
      ],
      "name": "getDistribution",
      "outputs": [
        {
          "internalType": "bytes32",
          "name": "organizationId",
          "type": "bytes32"
        },
        {
          "internalType": "address",
          "name": "initiator",
          "type": "address"
        },
        {
          "internalType": "uint256",
          "name": "createdAt",
          "type": "uint256"
        },
        {
          "internalType": "uint256",
          "name": "executedAt",
          "type": "uint256"
        },
        {
          "internalType": "bool",
          "name": "isExecuted",
          "type": "bool"
        },
        {
          "internalType": "bool",
          "name": "isCancelled",
          "type": "bool"
        }
      ],
      "stateMutability": "view",
      "type": "function"
    },
    {
      "inputs": [
        {
          "internalType": "bytes32",
          "name": "distributionId",
          "type": "bytes32"
        }
      ],
      "name": "getEncryptedDistributionData",
      "outputs": [
        {
          "internalType": "euint64",
          "name": "encryptedRecipientHash",
          "type": "bytes32"
        },
        {
          "internalType": "euint64",
          "name": "encryptedMemberIndex",
          "type": "bytes32"
        },
        {
          "internalType": "euint64",
          "name": "encryptedAmount",
          "type": "bytes32"
        },
        {
          "internalType": "euint32",
          "name": "encryptedCurrency",
          "type": "bytes32"
        },
        {
          "internalType": "euint32",
          "name": "encryptedPeriod",
          "type": "bytes32"
        }
      ],
      "stateMutability": "view",
      "type": "function"
    },
    {
      "inputs": [
        {
          "internalType": "address",
          "name": "member",
          "type": "address"
        }
      ],
      "name": "getMemberOrganizations",
      "outputs": [
        {
          "internalType": "bytes32[]",
          "name": "",
          "type": "bytes32[]"
        }
      ],
      "stateMutability": "view",
      "type": "function"
    },
    {
      "inputs": [
        {
          "internalType": "bytes32",
          "name": "organizationId",
          "type": "bytes32"
        }
      ],
      "name": "getOrganization",
      "outputs": [
        {
          "internalType": "string",
          "name": "organizationName",
          "type": "string"
        },
        {
          "internalType": "address",
          "name": "owner",
          "type": "address"
        },
        {
          "internalType": "uint256",
          "name": "createdAt",
          "type": "uint256"
        },
        {
          "internalType": "uint256",
          "name": "memberCount",
          "type": "uint256"
        },
        {
          "internalType": "bool",
          "name": "isActive",
          "type": "bool"
        }
      ],
      "stateMutability": "view",
      "type": "function"
    },
    {
      "inputs": [
        {
          "internalType": "bytes32",
          "name": "organizationId",
          "type": "bytes32"
        }
      ],
      "name": "getOrganizationDistributions",
      "outputs": [
        {
          "internalType": "bytes32[]",
          "name": "",
          "type": "bytes32[]"
        }
      ],
      "stateMutability": "view",
      "type": "function"
    },
    {
      "inputs": [
        {
          "internalType": "bytes32",
          "name": "organizationId",
          "type": "bytes32"
        }
      ],
      "name": "getOrganizationMembers",
      "outputs": [
        {
          "internalType": "address[]",
          "name": "",
          "type": "address[]"
        }
      ],
      "stateMutability": "view",
      "type": "function"
    },
    {
      "inputs": [
        {
          "internalType": "address",
          "name": "owner",
          "type": "address"
        }
      ],
      "name": "getOwnerOrganizations",
      "outputs": [
        {
          "internalType": "bytes32[]",
          "name": "",
          "type": "bytes32[]"
        }
      ],
      "stateMutability": "view",
      "type": "function"
    },
    {
      "inputs": [
        {
          "internalType": "bytes32",
          "name": "organizationId",
          "type": "bytes32"
        },
        {
          "internalType": "address",
          "name": "memberAddress",
          "type": "address"
        }
      ],
      "name": "getTeamMember",
      "outputs": [
        {
          "internalType": "string",
          "name": "memberName",
          "type": "string"
        },
        {
          "internalType": "string",
          "name": "role",
          "type": "string"
        },
        {
          "internalType": "uint256",
          "name": "joinedAt",
          "type": "uint256"
        },
        {
          "internalType": "bool",
          "name": "isActive",
          "type": "bool"
        }
      ],
      "stateMutability": "view",
      "type": "function"
    },
    {
      "inputs": [
        {
          "internalType": "address",
          "name": "",
          "type": "address"
        },
        {
          "internalType": "uint256",
          "name": "",
          "type": "uint256"
        }
      ],
      "name": "initiatorDistributions",
      "outputs": [
        {
          "internalType": "bytes32",
          "name": "",
          "type": "bytes32"
        }
      ],
      "stateMutability": "view",
      "type": "function"
    },
    {
      "inputs": [
        {
          "internalType": "address",
          "name": "",
          "type": "address"
        },
        {
          "internalType": "uint256",
          "name": "",
          "type": "uint256"
        }
      ],
      "name": "memberOrganizations",
      "outputs": [
        {
          "internalType": "bytes32",
          "name": "",
          "type": "bytes32"
        }
      ],
      "stateMutability": "view",
      "type": "function"
    },
    {
      "inputs": [],
      "name": "organizationCount",
      "outputs": [
        {
          "internalType": "uint256",
          "name": "",
          "type": "uint256"
        }
      ],
      "stateMutability": "view",
      "type": "function"
    },
    {
      "inputs": [
        {
          "internalType": "bytes32",
          "name": "",
          "type": "bytes32"
        },
        {
          "internalType": "uint256",
          "name": "",
          "type": "uint256"
        }
      ],
      "name": "organizationDistributions",
      "outputs": [
        {
          "internalType": "bytes32",
          "name": "",
          "type": "bytes32"
        }
      ],
      "stateMutability": "view",
      "type": "function"
    },
    {
      "inputs": [
        {
          "internalType": "bytes32",
          "name": "",
          "type": "bytes32"
        },
        {
          "internalType": "uint256",
          "name": "",
          "type": "uint256"
        }
      ],
      "name": "organizationMemberList",
      "outputs": [
        {
          "internalType": "address",
          "name": "",
          "type": "address"
        }
      ],
      "stateMutability": "view",
      "type": "function"
    },
    {
      "inputs": [
        {
          "internalType": "bytes32",
          "name": "",
          "type": "bytes32"
        },
        {
          "internalType": "address",
          "name": "",
          "type": "address"
        }
      ],
      "name": "organizationMembers",
      "outputs": [
        {
          "internalType": "address",
          "name": "memberAddress",
          "type": "address"
        },
        {
          "internalType": "string",
          "name": "memberName",
          "type": "string"
        },
        {
          "internalType": "string",
          "name": "role",
          "type": "string"
        },
        {
          "internalType": "bytes32",
          "name": "organizationId",
          "type": "bytes32"
        },
        {
          "internalType": "uint256",
          "name": "joinedAt",
          "type": "uint256"
        },
        {
          "internalType": "bool",
          "name": "isActive",
          "type": "bool"
        }
      ],
      "stateMutability": "view",
      "type": "function"
    },
    {
      "inputs": [
        {
          "internalType": "bytes32",
          "name": "",
          "type": "bytes32"
        }
      ],
      "name": "organizations",
      "outputs": [
        {
          "internalType": "bytes32",
          "name": "organizationId",
          "type": "bytes32"
        },
        {
          "internalType": "string",
          "name": "organizationName",
          "type": "string"
        },
        {
          "internalType": "address",
          "name": "owner",
          "type": "address"
        },
        {
          "internalType": "uint256",
          "name": "createdAt",
          "type": "uint256"
        },
        {
          "internalType": "uint256",
          "name": "memberCount",
          "type": "uint256"
        },
        {
          "internalType": "bool",
          "name": "isActive",
          "type": "bool"
        }
      ],
      "stateMutability": "view",
      "type": "function"
    },
    {
      "inputs": [
        {
          "internalType": "address",
          "name": "",
          "type": "address"
        },
        {
          "internalType": "uint256",
          "name": "",
          "type": "uint256"
        }
      ],
      "name": "ownerOrganizations",
      "outputs": [
        {
          "internalType": "bytes32",
          "name": "",
          "type": "bytes32"
        }
      ],
      "stateMutability": "view",
      "type": "function"
    },
    {
      "inputs": [],
      "name": "protocolId",
      "outputs": [
        {
          "internalType": "uint256",
          "name": "",
          "type": "uint256"
        }
      ],
      "stateMutability": "pure",
      "type": "function"
    },
    {
      "inputs": [
        {
          "internalType": "bytes32",
          "name": "organizationId",
          "type": "bytes32"
        },
        {
          "internalType": "address",
          "name": "memberAddress",
          "type": "address"
        }
      ],
      "name": "removeTeamMember",
      "outputs": [],
      "stateMutability": "nonpayable",
      "type": "function"
    },
    {
      "inputs": [],
      "name": "totalMemberCount",
      "outputs": [
        {
          "internalType": "uint256",
          "name": "",
          "type": "uint256"
        }
      ],
      "stateMutability": "view",
      "type": "function"
    }
  ],
  "bytecode": "0x608060405234610154575f6060610014610158565b828152826020820152826040820152015261002d610158565b606073687820221192c5b662b25367f70076a37bc79b6c9182815273848b0066793bcc60346da1f49049357399b8d59580602083015273a02cda4ca3a71d7c46997716f4283aa851c2881291826040820152731364cbbf2cdf5032c47d8226a6f6fbd2afcdacac938491015260018060a01b0319937f9e7b61f58c47dc699ac88507c4f5bb9f121c03808c5676a8078fe583e464970090858254161790557f9e7b61f58c47dc699ac88507c4f5bb9f121c03808c5676a8078fe583e464970190848254161790557f9e7b61f58c47dc699ac88507c4f5bb9f121c03808c5676a8078fe583e464970290838254161790557f9e7b61f58c47dc699ac88507c4f5bb9f121c03808c5676a8078fe583e464970391825416179055604051611cc9908161018c8239f35b5f80fd5b60405190608082016001600160401b0381118382101761017757604052565b634e487b7160e01b5f52604160045260245ffdfe6080806040526004361015610012575f80fd5b5f3560e01c908162600e1c146116e35750806301f056411461120857806311f0661a1461118d57806322b3cd4e14611110578063387ae2df1461109b5780635cc94a041461105357806367dd0e0b14610fe05780637271608d14610f6a5780637423746414610e84578063830c1bcc14610e55578063861aa0dc14610da75780638bbb34d914610d8a57806390b4391514610d4157806398162f8114610cf8578063ba51b14e14610c72578063c1f8218a14610bc0578063c65c3d9514610ba3578063ca4adfef14610afb578063cf06b5521461082d578063d01ef85514610796578063d937c55d1461073f578063da1f12ab14610723578063dd0e62151461066f578063de0cd823146105f7578063f0977bae146105a7578063f1c621041461058a578063f7b05720146104b85763fe9646491461014f575f80fd5b346104b457610100806003193601126104b45760243560043567ffffffffffffffff60e4358181116104b457610189903690600401611771565b845f939293526020955f875260ff600560405f20015416156104a2575f86815280885260409020600201546001600160a01b0391908216330361049157855f5260068852600860405f20015461047f576101ef6101e736858861195a565b604435611a22565b906102066101fe36868961195a565b606435611a22565b9261024a61024261022361021b36898c61195a565b608435611a22565b9861023a610232368a8461195a565b60a435611b51565b97369161195a565b60c435611b51565b6102543085611c2c565b61025e3086611c2c565b6102683089611c2c565b6102723087611c2c565b61027c3082611c2c565b6102863385611c2c565b6102903386611c2c565b61029a3389611c2c565b6102a43387611c2c565b6102ae3382611c2c565b604051956101808701978789109089111761046b578b988a98604052888852898801968c885260408901968752606089019081526080890191825260a0890192835260c0890193845260e08901953387528901964288526101208a01985f8a526101408b019c5f8e526101608c019c5f8e525f526006905260405f209a518b555160018b01555160028a0155516003890155516004880155516005870155516006860155600785019151166001600160601b0360a01b825416179055516008830155516009820155600a019151151561039390839060ff801983541691151516179055565b51151581549060081b61ff00169061ff001916179055815f52600783528060405f20906103bf916119a0565b335f52600883528060405f20906103d5916119a0565b600954600160401b81101561046b57600181018060095581101561045757819060095f527f6e1540171b6c0c960b71a7020d9f60077f6af931a8bbf590da0223dacf75c7af0155610427600c546119d4565b600c557fe354800b3e577df9244dbc7555b5df55dd79181b799fbbd67cf5d6f7013915d0604051934285523394a4005b634e487b7160e01b5f52603260045260245ffd5b634e487b7160e01b5f52604160045260245ffd5b604051630e52390960e41b8152600490fd5b6040516282b42960e81b8152600490fd5b604051639551f8b360e01b8152600490fd5b5f80fd5b346104b45760203660031901126104b457600435805f52600660205260405f209060088201541561057857600a82019182549260ff8416801561056b575b61055957600182015493845f525f60205260018060a01b03600260405f2001541633036104915760019060ff19161790556009429101557fbd4614beaa4d4369f9bc3e3d0467b668faf04224a9a7f8024a3de8e5c8cbd4896020604051428152a3005b6040516375e27e9b60e01b8152600490fd5b5060ff8460081c166104f6565b604051633a35c2f960e01b8152600490fd5b346104b4575f3660031901126104b4576020600a54604051908152f35b346104b45760203660031901126104b4576004356009548110156104b45760209060095f527f6e1540171b6c0c960b71a7020d9f60077f6af931a8bbf590da0223dacf75c7af0154604051908152f35b346104b4576020806003193601126104b4576004355f52600760205260405f20906040519081602084549182815201935f5260205f20915f905b828210610658576106548561064881890382611896565b604051918291826117dd565b0390f35b835486529485019460019384019390910190610631565b346104b45760203660031901126104b4576004355f52600660205261018060405f2060ff815491600181015490600281015460038201546004830154600584015460068501549160018060a01b0360078701541693600887015495600a6009890154980154986040519b8c5260208c015260408b015260608a0152608089015260a088015260c087015260e0860152610100850152610120840152818116151561014084015260081c161515610160820152f35b346104b4575f3660031901126104b45760206040516127118152f35b346104b45760403660031901126104b45761075861175b565b6001600160a01b03165f908152600560205260409020805460243591908210156104b45760209161078891611730565b90546040519160031b1c8152f35b346104b45760403660031901126104b4576107af611745565b6004355f52600360205260405f209060018060a01b03165f5260205261080e60405f20600481015460ff60058301541661081c6107fa60026107f3600187016118b8565b95016118b8565b60405195869560808752608087019061179f565b90858203602087015261179f565b916040840152151560608301520390f35b346104b45760403660031901126104b45767ffffffffffffffff6024358181116104b45761085f903690600401611771565b916004355f525f602052600360405f200154610ae957821561047f5760405161088781611866565b600435815261089736858561195a565b91602082019283523360408301524260608301525f6080830152600160a08301526004355f525f60205260405f20928251845551805191821161046b576108e1600185015461182e565b601f8111610aa5575b50602090601f8311600114610a3257928260059360a09361096f97965f92610a27575b50508160011b915f199060031b1c19161760018501555b60028401600180841b036040830151166001600160601b03841b82541617905560608101516003850155608081015160048501550151151591019060ff801983541691151516179055565b335f52600160205261098660043560405f206119a0565b60025490600160401b82101561046b576001820180600255821015610457576109f49160025f52600435907f405787fa12a823e0f2b7631cc41b3ba8828b3321ca811111fa75cd3aa3bb5ace01556109df600a546119d4565b600a55604051926040845260408401916119f6565b4260208301527f2a958f59d3b0290f8dea7ac522389a7a1c1805c48d033d76fa6d2dadc4bea05a339280600435930390a3005b01519050898061090d565b90601f19831691600186015f5260205f20925f5b818110610a8d57509360a09361096f9796936001938360059810610a75575b505050811b016001850155610924565b01515f1960f88460031b161c19169055898080610a65565b92936020600181928786015181550195019301610a46565b600185015f5260205f20601f840160051c810160208510610ae2575b601f830160051c82018110610ad75750506108ea565b5f8155600101610ac1565b5080610ac1565b6040516369c24f0b60e01b8152600490fd5b346104b45760203660031901126104b457600435805f52600660205260405f209060088201541561057857600a820180549260ff84168015610b96575b610559576001015492835f525f60205260018060a01b03600260405f200154163303610491576101009061ff0019161790557f5cbff5a060465c4a5311cd7589cb5fba16377720d054435db4a15f520bffadde6020604051428152a3005b5060ff8460081c16610b38565b346104b4575f3660031901126104b4576020600c54604051908152f35b346104b4576020806003193601126104b4576004355f526004815260405f20604051908183825491828152019081925f52845f20905f5b86828210610c55578686610c0d82880383611896565b60405192839281840190828552518091526040840192915f5b828110610c3557505050500390f35b83516001600160a01b031685528695509381019392810192600101610c26565b83546001600160a01b031685529093019260019283019201610bf7565b346104b45760203660031901126104b4576004355f525f60205260405f208054610c9e600183016118b8565b9160018060a01b036002820154169060038101549060ff600560048301549201541691610cdd604051968796875260c0602088015260c087019061179f565b93604086015260608501526080840152151560a08301520390f35b346104b45760403660031901126104b457610d1161175b565b6001600160a01b03165f908152600160205260409020805460243591908210156104b45760209161078891611730565b346104b45760403660031901126104b457610d5a61175b565b6001600160a01b03165f908152600860205260409020805460243591908210156104b45760209161078891611730565b346104b4575f3660031901126104b4576020600b54604051908152f35b346104b45760403660031901126104b457610dc0611745565b6004355f52600360205260405f2060018060a01b038092165f5260205260405f2090815416610df1600183016118b8565b91610dfe600282016118b8565b600382015491610e3f60ff600560048401549301541692610e31604051978897885260c0602089015260c088019061179f565b90868203604088015261179f565b9260608501526080840152151560a08301520390f35b346104b457610e6336611818565b905f52600760205260405f2080548210156104b45760209161078891611730565b346104b45760403660031901126104b457600435610ea0611745565b90805f5260205f815260ff600560405f20015416156104a2575f82815280825260409020600201546001600160a01b03908116330361049157825f526003825260405f20931692835f528152600560405f20019081549160ff831615610f58577f31bd20fe15001ee66b7528035447ad30c320a25815eb7d5de52d8e35ec2660009260ff19169055825f525f8152600460405f2001610f3f8154611a16565b9055610f4c600b54611a16565b600b55604051428152a3005b604051631fdd7d6360e01b8152600490fd5b346104b4576020806003193601126104b4576001600160a01b03610f8c61175b565b165f52600560205260405f20906040519081602084549182815201935f5260205f20915f905b828210610fc9576106548561064881890382611896565b835486529485019460019384019390910190610fb2565b346104b45760203660031901126104b4576004355f52600660205260c060405f2060ff60018201549160018060a01b03600782015416906008810154600a6009830154920154926040519586526020860152604085015260608401528181161515608084015260081c16151560a0820152f35b346104b45761106136611818565b905f52600460205260405f2080548210156104b45760209161108291611730565b905460405160039290921b1c6001600160a01b03168152f35b346104b4576020806003193601126104b4576001600160a01b036110bd61175b565b165f5260018060205260405f20916040519182602085549182815201945f5260205f20925f905b8282106110fb5761065486610648818a0382611896565b845487529586019593830193908301906110e4565b346104b45760203660031901126104b4576004355f525f60205261117260405f2060018060a01b03600282015416600382015491600481015461115d600160ff60058501541693016118b8565b9360405195869560a0875260a087019061179f565b93602086015260408501526060840152151560808301520390f35b346104b45760203660031901126104b4576004355f52600660205260405f2060018101545f525f60205260018060a01b03600260405f2001541633036104915780600260a092015490600381015490600481015460066005830154920154926040519485526020850152604084015260608301526080820152f35b346104b45760803660031901126104b457611221611745565b60443567ffffffffffffffff81116104b457611241903690600401611771565b919060643567ffffffffffffffff81116104b457611263903690600401611771565b906004355f525f60205260ff600560405f20015416156104a2576004355f908152602081905260409020600201546001600160a01b03163303610491576001600160a01b0384161561047f576004355f52600360205260405f2060018060a01b0385165f52602052600460405f2001546116d1576040516112e381611866565b6001600160a01b03851681526112fa36878661195a565b906020810191825261130d36858561195a565b60408201526004356060820152426080820152600160a08201526004355f52600360205260405f2060018060a01b0387165f5260205260405f209160018060a01b038251166001600160601b0360a01b8454161783555180519067ffffffffffffffff821161046b578190611385600186015461182e565b601f8111611681575b50602090601f8311600114611613575f92611608575b50508160011b915f199060031b1c19161760018301555b604081015180519067ffffffffffffffff821161046b576113df600285015461182e565b601f81116115c4575b50602090601f831160011461154f57928260059360a09361144d97965f92611544575b50508160011b915f199060031b1c19161760028501555b60608101516003850155608081015160048501550151151591019060ff801983541691151516179055565b6004355f52600460205260405f20918254600160401b81101561046b577f6fc07adcdb9027bf72ddbbc0d9f76f9c953e14fb8fdda2469aa298969052f06e946114a28261152796600161151995018155611730565b81546001600160a01b038a811660039390931b83811b91901b19909116179091555f9081526005602052604090206114dd90600435906119a0565b6004355f525f602052600460405f20016114f781546119d4565b9055611504600b546119d4565b600b55604051976060895260608901916119f6565b9186830360208801526119f6565b4260408501526001600160a01b03909216926004359281900390a3005b015190508c8061140b565b90600285015f5260205f20915f5b601f19851681106115ac57508360a09361144d979693600193600597601f19811610611594575b505050811b016002850155611422565b01515f1960f88460031b161c191690558c8080611584565b9192602060018192868501518155019401920161155d565b600285015f5260205f20601f840160051c810160208510611601575b601f830160051c820181106115f65750506113e8565b5f81556001016115e0565b50806115e0565b0151905089806113a4565b9250600185015f5260205f20905f935b601f1984168510611666576001945083601f1981161061164e575b505050811b0160018301556113bb565b01515f1960f88460031b161c1916905589808061163e565b81810151835560209485019460019093019290910190611623565b909150600185015f5260205f20601f840160051c8101602085106116ca575b90849392915b601f830160051c820181106116bc57505061138e565b5f81558594506001016116a6565b50806116a0565b60405163700a84a960e11b8152600490fd5b346104b45760203660031901126104b457600435906002548210156104b45760209160025f527f405787fa12a823e0f2b7631cc41b3ba8828b3321ca811111fa75cd3aa3bb5ace01548152f35b8054821015610457575f5260205f2001905f90565b602435906001600160a01b03821682036104b457565b600435906001600160a01b03821682036104b457565b9181601f840112156104b45782359167ffffffffffffffff83116104b457602083818601950101116104b457565b91908251928382525f5b8481106117c9575050825f602080949584010152601f8019910116010190565b6020818301810151848301820152016117a9565b60209060206040818301928281528551809452019301915f5b828110611804575050505090565b8351855293810193928101926001016117f6565b60409060031901126104b4576004359060243590565b90600182811c9216801561185c575b602083101461184857565b634e487b7160e01b5f52602260045260245ffd5b91607f169161183d565b60c0810190811067ffffffffffffffff82111761046b57604052565b67ffffffffffffffff811161046b57604052565b90601f8019910116810190811067ffffffffffffffff82111761046b57604052565b9060405191825f82546118ca8161182e565b908184526020946001916001811690815f1461193857506001146118fa575b5050506118f892500383611896565b565b5f90815285812095935091905b8183106119205750506118f893508201015f80806118e9565b85548884018501529485019487945091830191611907565b925050506118f894925060ff191682840152151560051b8201015f80806118e9565b92919267ffffffffffffffff821161046b5760405191611984601f8201601f191660200184611896565b8294818452818301116104b4578281602093845f960137010152565b8054600160401b81101561046b576119bd91600182018155611730565b819291549060031b91821b915f19901b1916179055565b5f1981146119e25760010190565b634e487b7160e01b5f52601160045260245ffd5b908060209392818452848401375f828201840152601f01601f1916010190565b80156119e2575f190190565b7f9e7b61f58c47dc699ac88507c4f5bb9f121c03808c5676a8078fe583e46497015460405163196d0b9b60e01b81526004810192909252336024830152608060448301526001600160a01b03939260209183919086169082905f908290611a8d90608483019061179f565b6005606483015203925af1908115611b14575f91611b1f575b5080927f9e7b61f58c47dc699ac88507c4f5bb9f121c03808c5676a8078fe583e46497005416803b156104b457604051630f8e573b60e21b815260048101929092523360248301525f908290818381604481015b03925af18015611b1457611b0b5750565b6118f890611882565b6040513d5f823e3d90fd5b90506020813d602011611b49575b81611b3a60209383611896565b810103126104b457515f611aa6565b3d9150611b2d565b7f9e7b61f58c47dc699ac88507c4f5bb9f121c03808c5676a8078fe583e46497015460405163196d0b9b60e01b81526004810192909252336024830152608060448301526001600160a01b03939260209183919086169082905f908290611bbc90608483019061179f565b6004606483015203925af1908115611b14575f91611b1f575080927f9e7b61f58c47dc699ac88507c4f5bb9f121c03808c5676a8078fe583e46497005416803b156104b457604051630f8e573b60e21b815260048101929092523360248301525f90829081838160448101611afa565b7f9e7b61f58c47dc699ac88507c4f5bb9f121c03808c5676a8078fe583e4649700546001600160a01b031691823b156104b457604051635ca4b5b160e11b815260048101929092526001600160a01b03166024820152905f90829081838160448101611afa56fea26469706673582212204cbfb95bb77bf812e1256062b2b28faaadd3ffa076550dc805401b4d277f7bf164736f6c63430008180033",
  "linkReferences": {},
  "deployedLinkReferences": {}
}