{
  "_format": "hh-sol-artifact-1",
  "contractName": "PayrollManager",
  "sourceName": "contracts/PayrollManager.sol",
  "abi": [
    {
      "inputs": [],
      "name": "DistributionAlreadyExecuted",
      "type": "error"
    },
    {
      "inputs": [],
      "name": "DistributionNotFound",
      "type": "error"
    },
    {
      "inputs": [],
      "name": "InvalidParameters",
      "type": "error"
    },
    {
      "inputs": [],
      "name": "MemberAlreadyExists",
      "type": "error"
    },
    {
      "inputs": [],
      "name": "MemberNotFound",
      "type": "error"
    },
    {
      "inputs": [],
      "name": "OrganizationAlreadyExists",
      "type": "error"
    },
    {
      "inputs": [],
      "name": "OrganizationNotFound",
      "type": "error"
    },
    {
      "inputs": [],
      "name": "Unauthorized",
      "type": "error"
    },
    {
      "anonymous": false,
      "inputs": [
        {
          "indexed": true,
          "internalType": "bytes32",
          "name": "organizationId",
          "type": "bytes32"
        },
        {
          "indexed": true,
          "internalType": "address",
          "name": "memberAddress",
          "type": "address"
        },
        {
          "indexed": false,
          "internalType": "string",
          "name": "memberName",
          "type": "string"
        },
        {
          "indexed": false,
          "internalType": "string",
          "name": "role",
          "type": "string"
        },
        {
          "indexed": false,
          "internalType": "uint256",
          "name": "timestamp",
          "type": "uint256"
        }
      ],
      "name": "MemberAdded",
      "type": "event"
    },
    {
      "anonymous": false,
      "inputs": [
        {
          "indexed": true,
          "internalType": "bytes32",
          "name": "organizationId",
          "type": "bytes32"
        },
        {
          "indexed": true,
          "internalType": "address",
          "name": "memberAddress",
          "type": "address"
        },
        {
          "indexed": false,
          "internalType": "uint256",
          "name": "timestamp",
          "type": "uint256"
        }
      ],
      "name": "MemberRemoved",
      "type": "event"
    },
    {
      "anonymous": false,
      "inputs": [
        {
          "indexed": true,
          "internalType": "bytes32",
          "name": "organizationId",
          "type": "bytes32"
        },
        {
          "indexed": false,
          "internalType": "string",
          "name": "organizationName",
          "type": "string"
        },
        {
          "indexed": true,
          "internalType": "address",
          "name": "owner",
          "type": "address"
        },
        {
          "indexed": false,
          "internalType": "uint256",
          "name": "timestamp",
          "type": "uint256"
        }
      ],
      "name": "OrganizationCreated",
      "type": "event"
    },
    {
      "anonymous": false,
      "inputs": [
        {
          "indexed": true,
          "internalType": "bytes32",
          "name": "distributionId",
          "type": "bytes32"
        },
        {
          "indexed": true,
          "internalType": "bytes32",
          "name": "organizationId",
          "type": "bytes32"
        },
        {
          "indexed": false,
          "internalType": "uint256",
          "name": "timestamp",
          "type": "uint256"
        }
      ],
      "name": "PayrollDistributionCancelled",
      "type": "event"
    },
    {
      "anonymous": false,
      "inputs": [
        {
          "indexed": true,
          "internalType": "bytes32",
          "name": "distributionId",
          "type": "bytes32"
        },
        {
          "indexed": true,
          "internalType": "bytes32",
          "name": "organizationId",
          "type": "bytes32"
        },
        {
          "indexed": true,
          "internalType": "address",
          "name": "initiator",
          "type": "address"
        },
        {
          "indexed": false,
          "internalType": "uint256",
          "name": "timestamp",
          "type": "uint256"
        }
      ],
      "name": "PayrollDistributionCreated",
      "type": "event"
    },
    {
      "anonymous": false,
      "inputs": [
        {
          "indexed": true,
          "internalType": "bytes32",
          "name": "distributionId",
          "type": "bytes32"
        },
        {
          "indexed": true,
          "internalType": "bytes32",
          "name": "organizationId",
          "type": "bytes32"
        },
        {
          "indexed": false,
          "internalType": "uint256",
          "name": "timestamp",
          "type": "uint256"
        }
      ],
      "name": "PayrollDistributionExecuted",
      "type": "event"
    },
    {
      "inputs": [
        {
          "internalType": "bytes32",
          "name": "organizationId",
          "type": "bytes32"
        },
        {
          "internalType": "address",
          "name": "memberAddress",
          "type": "address"
        },
        {
          "internalType": "string",
          "name": "memberName",
          "type": "string"
        },
        {
          "internalType": "string",
          "name": "role",
          "type": "string"
        }
      ],
      "name": "addTeamMember",
      "outputs": [],
      "stateMutability": "nonpayable",
      "type": "function"
    },
    {
      "inputs": [
        {
          "internalType": "uint256",
          "name": "",
          "type": "uint256"
        }
      ],
      "name": "allDistributions",
      "outputs": [
        {
          "internalType": "bytes32",
          "name": "",
          "type": "bytes32"
        }
      ],
      "stateMutability": "view",
      "type": "function"
    },
    {
      "inputs": [
        {
          "internalType": "uint256",
          "name": "",
          "type": "uint256"
        }
      ],
      "name": "allOrganizations",
      "outputs": [
        {
          "internalType": "bytes32",
          "name": "",
          "type": "bytes32"
        }
      ],
      "stateMutability": "view",
      "type": "function"
    },
    {
      "inputs": [
        {
          "internalType": "bytes32",
          "name": "distributionId",
          "type": "bytes32"
        }
      ],
      "name": "cancelPayrollDistribution",
      "outputs": [],
      "stateMutability": "nonpayable",
      "type": "function"
    },
    {
      "inputs": [
        {
          "internalType": "bytes32",
          "name": "organizationId",
          "type": "bytes32"
        },
        {
          "internalType": "string",
          "name": "organizationName",
          "type": "string"
        }
      ],
      "name": "createOrganization",
      "outputs": [],
      "stateMutability": "nonpayable",
      "type": "function"
    },
    {
      "inputs": [
        {
          "internalType": "bytes32",
          "name": "distributionId",
          "type": "bytes32"
        },
        {
          "internalType": "bytes32",
          "name": "organizationId",
          "type": "bytes32"
        },
        {
          "internalType": "externalEuint128",
          "name": "encryptedRecipientHash",
          "type": "bytes32"
        },
        {
          "internalType": "externalEuint64",
          "name": "encryptedMemberIndex",
          "type": "bytes32"
        },
        {
          "internalType": "externalEuint128",
          "name": "encryptedAmount",
          "type": "bytes32"
        },
        {
          "internalType": "externalEuint32",
          "name": "encryptedCurrency",
          "type": "bytes32"
        },
        {
          "internalType": "externalEuint32",
          "name": "encryptedPeriod",
          "type": "bytes32"
        },
        {
          "internalType": "bytes",
          "name": "inputProof",
          "type": "bytes"
        }
      ],
      "name": "createPayrollDistribution",
      "outputs": [],
      "stateMutability": "nonpayable",
      "type": "function"
    },
    {
      "inputs": [],
      "name": "distributionCount",
      "outputs": [
        {
          "internalType": "uint256",
          "name": "",
          "type": "uint256"
        }
      ],
      "stateMutability": "view",
      "type": "function"
    },
    {
      "inputs": [
        {
          "internalType": "bytes32",
          "name": "",
          "type": "bytes32"
        }
      ],
      "name": "distributions",
      "outputs": [
        {
          "internalType": "bytes32",
          "name": "distributionId",
          "type": "bytes32"
        },
        {
          "internalType": "bytes32",
          "name": "organizationId",
          "type": "bytes32"
        },
        {
          "internalType": "euint128",
          "name": "encryptedRecipientHash",
          "type": "bytes32"
        },
        {
          "internalType": "euint64",
          "name": "encryptedMemberIndex",
          "type": "bytes32"
        },
        {
          "internalType": "euint128",
          "name": "encryptedAmount",
          "type": "bytes32"
        },
        {
          "internalType": "euint32",
          "name": "encryptedCurrency",
          "type": "bytes32"
        },
        {
          "internalType": "euint32",
          "name": "encryptedPeriod",
          "type": "bytes32"
        },
        {
          "internalType": "address",
          "name": "initiator",
          "type": "address"
        },
        {
          "internalType": "uint256",
          "name": "createdAt",
          "type": "uint256"
        },
        {
          "internalType": "uint256",
          "name": "executedAt",
          "type": "uint256"
        },
        {
          "internalType": "bool",
          "name": "isExecuted",
          "type": "bool"
        },
        {
          "internalType": "bool",
          "name": "isCancelled",
          "type": "bool"
        }
      ],
      "stateMutability": "view",
      "type": "function"
    },
    {
      "inputs": [
        {
          "internalType": "bytes32",
          "name": "distributionId",
          "type": "bytes32"
        }
      ],
      "name": "executePayrollDistribution",
      "outputs": [],
      "stateMutability": "nonpayable",
      "type": "function"
    },
    {
      "inputs": [
        {
          "internalType": "bytes32",
          "name": "distributionId",
          "type": "bytes32"
        }
      ],
      "name": "getDistribution",
      "outputs": [
        {
          "internalType": "bytes32",
          "name": "organizationId",
          "type": "bytes32"
        },
        {
          "internalType": "address",
          "name": "initiator",
          "type": "address"
        },
        {
          "internalType": "uint256",
          "name": "createdAt",
          "type": "uint256"
        },
        {
          "internalType": "uint256",
          "name": "executedAt",
          "type": "uint256"
        },
        {
          "internalType": "bool",
          "name": "isExecuted",
          "type": "bool"
        },
        {
          "internalType": "bool",
          "name": "isCancelled",
          "type": "bool"
        }
      ],
      "stateMutability": "view",
      "type": "function"
    },
    {
      "inputs": [
        {
          "internalType": "bytes32",
          "name": "distributionId",
          "type": "bytes32"
        }
      ],
      "name": "getEncryptedDistributionData",
      "outputs": [
        {
          "internalType": "euint128",
          "name": "encryptedRecipientHash",
          "type": "bytes32"
        },
        {
          "internalType": "euint64",
          "name": "encryptedMemberIndex",
          "type": "bytes32"
        },
        {
          "internalType": "euint128",
          "name": "encryptedAmount",
          "type": "bytes32"
        },
        {
          "internalType": "euint32",
          "name": "encryptedCurrency",
          "type": "bytes32"
        },
        {
          "internalType": "euint32",
          "name": "encryptedPeriod",
          "type": "bytes32"
        }
      ],
      "stateMutability": "view",
      "type": "function"
    },
    {
      "inputs": [
        {
          "internalType": "address",
          "name": "member",
          "type": "address"
        }
      ],
      "name": "getMemberOrganizations",
      "outputs": [
        {
          "internalType": "bytes32[]",
          "name": "",
          "type": "bytes32[]"
        }
      ],
      "stateMutability": "view",
      "type": "function"
    },
    {
      "inputs": [
        {
          "internalType": "bytes32",
          "name": "organizationId",
          "type": "bytes32"
        }
      ],
      "name": "getOrganization",
      "outputs": [
        {
          "internalType": "string",
          "name": "organizationName",
          "type": "string"
        },
        {
          "internalType": "address",
          "name": "owner",
          "type": "address"
        },
        {
          "internalType": "uint256",
          "name": "createdAt",
          "type": "uint256"
        },
        {
          "internalType": "uint256",
          "name": "memberCount",
          "type": "uint256"
        },
        {
          "internalType": "bool",
          "name": "isActive",
          "type": "bool"
        }
      ],
      "stateMutability": "view",
      "type": "function"
    },
    {
      "inputs": [
        {
          "internalType": "bytes32",
          "name": "organizationId",
          "type": "bytes32"
        }
      ],
      "name": "getOrganizationDistributions",
      "outputs": [
        {
          "internalType": "bytes32[]",
          "name": "",
          "type": "bytes32[]"
        }
      ],
      "stateMutability": "view",
      "type": "function"
    },
    {
      "inputs": [
        {
          "internalType": "bytes32",
          "name": "organizationId",
          "type": "bytes32"
        }
      ],
      "name": "getOrganizationMembers",
      "outputs": [
        {
          "internalType": "address[]",
          "name": "",
          "type": "address[]"
        }
      ],
      "stateMutability": "view",
      "type": "function"
    },
    {
      "inputs": [
        {
          "internalType": "address",
          "name": "owner",
          "type": "address"
        }
      ],
      "name": "getOwnerOrganizations",
      "outputs": [
        {
          "internalType": "bytes32[]",
          "name": "",
          "type": "bytes32[]"
        }
      ],
      "stateMutability": "view",
      "type": "function"
    },
    {
      "inputs": [
        {
          "internalType": "bytes32",
          "name": "organizationId",
          "type": "bytes32"
        },
        {
          "internalType": "address",
          "name": "memberAddress",
          "type": "address"
        }
      ],
      "name": "getTeamMember",
      "outputs": [
        {
          "internalType": "string",
          "name": "memberName",
          "type": "string"
        },
        {
          "internalType": "string",
          "name": "role",
          "type": "string"
        },
        {
          "internalType": "uint256",
          "name": "joinedAt",
          "type": "uint256"
        },
        {
          "internalType": "bool",
          "name": "isActive",
          "type": "bool"
        }
      ],
      "stateMutability": "view",
      "type": "function"
    },
    {
      "inputs": [
        {
          "internalType": "address",
          "name": "",
          "type": "address"
        },
        {
          "internalType": "uint256",
          "name": "",
          "type": "uint256"
        }
      ],
      "name": "initiatorDistributions",
      "outputs": [
        {
          "internalType": "bytes32",
          "name": "",
          "type": "bytes32"
        }
      ],
      "stateMutability": "view",
      "type": "function"
    },
    {
      "inputs": [
        {
          "internalType": "address",
          "name": "",
          "type": "address"
        },
        {
          "internalType": "uint256",
          "name": "",
          "type": "uint256"
        }
      ],
      "name": "memberOrganizations",
      "outputs": [
        {
          "internalType": "bytes32",
          "name": "",
          "type": "bytes32"
        }
      ],
      "stateMutability": "view",
      "type": "function"
    },
    {
      "inputs": [],
      "name": "organizationCount",
      "outputs": [
        {
          "internalType": "uint256",
          "name": "",
          "type": "uint256"
        }
      ],
      "stateMutability": "view",
      "type": "function"
    },
    {
      "inputs": [
        {
          "internalType": "bytes32",
          "name": "",
          "type": "bytes32"
        },
        {
          "internalType": "uint256",
          "name": "",
          "type": "uint256"
        }
      ],
      "name": "organizationDistributions",
      "outputs": [
        {
          "internalType": "bytes32",
          "name": "",
          "type": "bytes32"
        }
      ],
      "stateMutability": "view",
      "type": "function"
    },
    {
      "inputs": [
        {
          "internalType": "bytes32",
          "name": "",
          "type": "bytes32"
        },
        {
          "internalType": "uint256",
          "name": "",
          "type": "uint256"
        }
      ],
      "name": "organizationMemberList",
      "outputs": [
        {
          "internalType": "address",
          "name": "",
          "type": "address"
        }
      ],
      "stateMutability": "view",
      "type": "function"
    },
    {
      "inputs": [
        {
          "internalType": "bytes32",
          "name": "",
          "type": "bytes32"
        },
        {
          "internalType": "address",
          "name": "",
          "type": "address"
        }
      ],
      "name": "organizationMembers",
      "outputs": [
        {
          "internalType": "address",
          "name": "memberAddress",
          "type": "address"
        },
        {
          "internalType": "string",
          "name": "memberName",
          "type": "string"
        },
        {
          "internalType": "string",
          "name": "role",
          "type": "string"
        },
        {
          "internalType": "bytes32",
          "name": "organizationId",
          "type": "bytes32"
        },
        {
          "internalType": "uint256",
          "name": "joinedAt",
          "type": "uint256"
        },
        {
          "internalType": "bool",
          "name": "isActive",
          "type": "bool"
        }
      ],
      "stateMutability": "view",
      "type": "function"
    },
    {
      "inputs": [
        {
          "internalType": "bytes32",
          "name": "",
          "type": "bytes32"
        }
      ],
      "name": "organizations",
      "outputs": [
        {
          "internalType": "bytes32",
          "name": "organizationId",
          "type": "bytes32"
        },
        {
          "internalType": "string",
          "name": "organizationName",
          "type": "string"
        },
        {
          "internalType": "address",
          "name": "owner",
          "type": "address"
        },
        {
          "internalType": "uint256",
          "name": "createdAt",
          "type": "uint256"
        },
        {
          "internalType": "uint256",
          "name": "memberCount",
          "type": "uint256"
        },
        {
          "internalType": "bool",
          "name": "isActive",
          "type": "bool"
        }
      ],
      "stateMutability": "view",
      "type": "function"
    },
    {
      "inputs": [
        {
          "internalType": "address",
          "name": "",
          "type": "address"
        },
        {
          "internalType": "uint256",
          "name": "",
          "type": "uint256"
        }
      ],
      "name": "ownerOrganizations",
      "outputs": [
        {
          "internalType": "bytes32",
          "name": "",
          "type": "bytes32"
        }
      ],
      "stateMutability": "view",
      "type": "function"
    },
    {
      "inputs": [],
      "name": "protocolId",
      "outputs": [
        {
          "internalType": "uint256",
          "name": "",
          "type": "uint256"
        }
      ],
      "stateMutability": "pure",
      "type": "function"
    },
    {
      "inputs": [
        {
          "internalType": "bytes32",
          "name": "organizationId",
          "type": "bytes32"
        },
        {
          "internalType": "address",
          "name": "memberAddress",
          "type": "address"
        }
      ],
      "name": "removeTeamMember",
      "outputs": [],
      "stateMutability": "nonpayable",
      "type": "function"
    },
    {
      "inputs": [],
      "name": "totalMemberCount",
      "outputs": [
        {
          "internalType": "uint256",
          "name": "",
          "type": "uint256"
        }
      ],
      "stateMutability": "view",
      "type": "function"
    }
  ],
  "bytecode": "0x608060405234610154575f6060610014610158565b828152826020820152826040820152015261002d610158565b606073687820221192c5b662b25367f70076a37bc79b6c9182815273848b0066793bcc60346da1f49049357399b8d59580602083015273a02cda4ca3a71d7c46997716f4283aa851c2881291826040820152731364cbbf2cdf5032c47d8226a6f6fbd2afcdacac938491015260018060a01b0319937f9e7b61f58c47dc699ac88507c4f5bb9f121c03808c5676a8078fe583e464970090858254161790557f9e7b61f58c47dc699ac88507c4f5bb9f121c03808c5676a8078fe583e464970190848254161790557f9e7b61f58c47dc699ac88507c4f5bb9f121c03808c5676a8078fe583e464970290838254161790557f9e7b61f58c47dc699ac88507c4f5bb9f121c03808c5676a8078fe583e464970391825416179055604051611da4908161018c8239f35b5f80fd5b60405190608082016001600160401b0381118382101761017757604052565b634e487b7160e01b5f52604160045260245ffdfe6080806040526004361015610012575f80fd5b5f3560e01c908162600e1c146117e25750806301f056411461130757806311f0661a1461128c57806322b3cd4e1461120f578063387ae2df1461119a5780635cc94a041461115257806367dd0e0b146110df5780637271608d146110695780637423746414610f83578063830c1bcc14610f54578063861aa0dc14610ea65780638bbb34d914610e8957806390b4391514610e4057806398162f8114610df7578063ba51b14e14610d71578063c1f8218a14610cbf578063c65c3d9514610ca2578063ca4adfef14610bfa578063cf06b5521461092c578063d01ef85514610895578063d937c55d1461083e578063da1f12ab14610822578063dd0e62151461076e578063de0cd823146106f6578063f0977bae146106a6578063f1c6210414610689578063f7b05720146105b75763fe9646491461014f575f80fd5b3461054f576101008060031936011261054f5760243560043567ffffffffffffffff60e43581811161054f57610189903690600401611870565b845f939293526020955f875260ff600560405f20015416156105a5575f86815280885260409020600201546001600160a01b03908116330361059457855f5260068852600860405f200154610582575f916101f06101e8368689611a59565b604435611b21565b918961025761020036888b611a59565b837f9e7b61f58c47dc699ac88507c4f5bb9f121c03808c5676a8078fe583e464970154169060405197888094819363196d0b9b60e01b8352606435600484015233602484015260806044840152608483019061189e565b6005606483015203925af1938415610544575f94610553575b50805f80516020611d4f8339815191525416803b1561054f57604051630f8e573b60e21b815260048101869052336024820152905f908290604490829084905af1801561054457610535575b506103006102f86102d96102d136898c611a59565b608435611b21565b986102f06102e8368a84611a59565b60a435611c32565b973691611a59565b60c435611c32565b61030a3085611cfa565b6103143086611cfa565b61031e3089611cfa565b6103283087611cfa565b6103323082611cfa565b61033c3385611cfa565b6103463386611cfa565b6103503389611cfa565b61035a3387611cfa565b6103643382611cfa565b6040519561018087019787891090891117610521578b988a98604052888852898801968c885260408901968752606089019081526080890191825260a0890192835260c0890193845260e08901953387528901964288526101208a01985f8a526101408b019c5f8e526101608c019c5f8e525f526006905260405f209a518b555160018b01555160028a0155516003890155516004880155516005870155516006860155600785019151166001600160601b0360a01b825416179055516008830155516009820155600a019151151561044990839060ff801983541691151516179055565b51151581549060081b61ff00169061ff001916179055815f52600783528060405f209061047591611a9f565b335f52600883528060405f209061048b91611a9f565b600954600160401b81101561052157600181018060095581101561050d57819060095f527f6e1540171b6c0c960b71a7020d9f60077f6af931a8bbf590da0223dacf75c7af01556104dd600c54611ad3565b600c557fe354800b3e577df9244dbc7555b5df55dd79181b799fbbd67cf5d6f7013915d0604051934285523394a4005b634e487b7160e01b5f52603260045260245ffd5b634e487b7160e01b5f52604160045260245ffd5b61053e90611981565b5f6102bc565b6040513d5f823e3d90fd5b5f80fd5b9093508981813d831161057b575b61056b8183611995565b8101031261054f5751925f610270565b503d610561565b604051630e52390960e41b8152600490fd5b6040516282b42960e81b8152600490fd5b604051639551f8b360e01b8152600490fd5b3461054f57602036600319011261054f57600435805f52600660205260405f209060088201541561067757600a82019182549260ff8416801561066a575b61065857600182015493845f525f60205260018060a01b03600260405f2001541633036105945760019060ff19161790556009429101557fbd4614beaa4d4369f9bc3e3d0467b668faf04224a9a7f8024a3de8e5c8cbd4896020604051428152a3005b6040516375e27e9b60e01b8152600490fd5b5060ff8460081c166105f5565b604051633a35c2f960e01b8152600490fd5b3461054f575f36600319011261054f576020600a54604051908152f35b3461054f57602036600319011261054f5760043560095481101561054f5760209060095f527f6e1540171b6c0c960b71a7020d9f60077f6af931a8bbf590da0223dacf75c7af0154604051908152f35b3461054f5760208060031936011261054f576004355f52600760205260405f20906040519081602084549182815201935f5260205f20915f905b828210610757576107538561074781890382611995565b604051918291826118dc565b0390f35b835486529485019460019384019390910190610730565b3461054f57602036600319011261054f576004355f52600660205261018060405f2060ff815491600181015490600281015460038201546004830154600584015460068501549160018060a01b0360078701541693600887015495600a6009890154980154986040519b8c5260208c015260408b015260608a0152608089015260a088015260c087015260e0860152610100850152610120840152818116151561014084015260081c161515610160820152f35b3461054f575f36600319011261054f5760206040516127118152f35b3461054f57604036600319011261054f5761085761185a565b6001600160a01b03165f9081526005602052604090208054602435919082101561054f576020916108879161182f565b90546040519160031b1c8152f35b3461054f57604036600319011261054f576108ae611844565b6004355f52600360205260405f209060018060a01b03165f5260205261090d60405f20600481015460ff60058301541661091b6108f960026108f2600187016119b7565b95016119b7565b60405195869560808752608087019061189e565b90858203602087015261189e565b916040840152151560608301520390f35b3461054f57604036600319011261054f5767ffffffffffffffff60243581811161054f5761095e903690600401611870565b916004355f525f602052600360405f200154610be85782156105825760405161098681611965565b6004358152610996368585611a59565b91602082019283523360408301524260608301525f6080830152600160a08301526004355f525f60205260405f209282518455518051918211610521576109e0600185015461192d565b601f8111610ba4575b50602090601f8311600114610b3157928260059360a093610a6e97965f92610b26575b50508160011b915f199060031b1c19161760018501555b60028401600180841b036040830151166001600160601b03841b82541617905560608101516003850155608081015160048501550151151591019060ff801983541691151516179055565b335f526001602052610a8560043560405f20611a9f565b60025490600160401b82101561052157600182018060025582101561050d57610af39160025f52600435907f405787fa12a823e0f2b7631cc41b3ba8828b3321ca811111fa75cd3aa3bb5ace0155610ade600a54611ad3565b600a5560405192604084526040840191611af5565b4260208301527f2a958f59d3b0290f8dea7ac522389a7a1c1805c48d033d76fa6d2dadc4bea05a339280600435930390a3005b015190508980610a0c565b90601f19831691600186015f5260205f20925f5b818110610b8c57509360a093610a6e9796936001938360059810610b74575b505050811b016001850155610a23565b01515f1960f88460031b161c19169055898080610b64565b92936020600181928786015181550195019301610b45565b600185015f5260205f20601f840160051c810160208510610be1575b601f830160051c82018110610bd65750506109e9565b5f8155600101610bc0565b5080610bc0565b6040516369c24f0b60e01b8152600490fd5b3461054f57602036600319011261054f57600435805f52600660205260405f209060088201541561067757600a820180549260ff84168015610c95575b610658576001015492835f525f60205260018060a01b03600260405f200154163303610594576101009061ff0019161790557f5cbff5a060465c4a5311cd7589cb5fba16377720d054435db4a15f520bffadde6020604051428152a3005b5060ff8460081c16610c37565b3461054f575f36600319011261054f576020600c54604051908152f35b3461054f5760208060031936011261054f576004355f526004815260405f20604051908183825491828152019081925f52845f20905f5b86828210610d54578686610d0c82880383611995565b60405192839281840190828552518091526040840192915f5b828110610d3457505050500390f35b83516001600160a01b031685528695509381019392810192600101610d25565b83546001600160a01b031685529093019260019283019201610cf6565b3461054f57602036600319011261054f576004355f525f60205260405f208054610d9d600183016119b7565b9160018060a01b036002820154169060038101549060ff600560048301549201541691610ddc604051968796875260c0602088015260c087019061189e565b93604086015260608501526080840152151560a08301520390f35b3461054f57604036600319011261054f57610e1061185a565b6001600160a01b03165f9081526001602052604090208054602435919082101561054f576020916108879161182f565b3461054f57604036600319011261054f57610e5961185a565b6001600160a01b03165f9081526008602052604090208054602435919082101561054f576020916108879161182f565b3461054f575f36600319011261054f576020600b54604051908152f35b3461054f57604036600319011261054f57610ebf611844565b6004355f52600360205260405f2060018060a01b038092165f5260205260405f2090815416610ef0600183016119b7565b91610efd600282016119b7565b600382015491610f3e60ff600560048401549301541692610f30604051978897885260c0602089015260c088019061189e565b90868203604088015261189e565b9260608501526080840152151560a08301520390f35b3461054f57610f6236611917565b905f52600760205260405f20805482101561054f576020916108879161182f565b3461054f57604036600319011261054f57600435610f9f611844565b90805f5260205f815260ff600560405f20015416156105a5575f82815280825260409020600201546001600160a01b03908116330361059457825f526003825260405f20931692835f528152600560405f20019081549160ff831615611057577f31bd20fe15001ee66b7528035447ad30c320a25815eb7d5de52d8e35ec2660009260ff19169055825f525f8152600460405f200161103e8154611b15565b905561104b600b54611b15565b600b55604051428152a3005b604051631fdd7d6360e01b8152600490fd5b3461054f5760208060031936011261054f576001600160a01b0361108b61185a565b165f52600560205260405f20906040519081602084549182815201935f5260205f20915f905b8282106110c8576107538561074781890382611995565b8354865294850194600193840193909101906110b1565b3461054f57602036600319011261054f576004355f52600660205260c060405f2060ff60018201549160018060a01b03600782015416906008810154600a6009830154920154926040519586526020860152604085015260608401528181161515608084015260081c16151560a0820152f35b3461054f5761116036611917565b905f52600460205260405f20805482101561054f576020916111819161182f565b905460405160039290921b1c6001600160a01b03168152f35b3461054f5760208060031936011261054f576001600160a01b036111bc61185a565b165f5260018060205260405f20916040519182602085549182815201945f5260205f20925f905b8282106111fa5761075386610747818a0382611995565b845487529586019593830193908301906111e3565b3461054f57602036600319011261054f576004355f525f60205261127160405f2060018060a01b03600282015416600382015491600481015461125c600160ff60058501541693016119b7565b9360405195869560a0875260a087019061189e565b93602086015260408501526060840152151560808301520390f35b3461054f57602036600319011261054f576004355f52600660205260405f2060018101545f525f60205260018060a01b03600260405f2001541633036105945780600260a092015490600381015490600481015460066005830154920154926040519485526020850152604084015260608301526080820152f35b3461054f57608036600319011261054f57611320611844565b60443567ffffffffffffffff811161054f57611340903690600401611870565b919060643567ffffffffffffffff811161054f57611362903690600401611870565b906004355f525f60205260ff600560405f20015416156105a5576004355f908152602081905260409020600201546001600160a01b03163303610594576001600160a01b03841615610582576004355f52600360205260405f2060018060a01b0385165f52602052600460405f2001546117d0576040516113e281611965565b6001600160a01b03851681526113f9368786611a59565b906020810191825261140c368585611a59565b60408201526004356060820152426080820152600160a08201526004355f52600360205260405f2060018060a01b0387165f5260205260405f209160018060a01b038251166001600160601b0360a01b8454161783555180519067ffffffffffffffff8211610521578190611484600186015461192d565b601f8111611780575b50602090601f8311600114611712575f92611707575b50508160011b915f199060031b1c19161760018301555b604081015180519067ffffffffffffffff8211610521576114de600285015461192d565b601f81116116c3575b50602090601f831160011461164e57928260059360a09361154c97965f92611643575b50508160011b915f199060031b1c19161760028501555b60608101516003850155608081015160048501550151151591019060ff801983541691151516179055565b6004355f52600460205260405f20918254600160401b811015610521577f6fc07adcdb9027bf72ddbbc0d9f76f9c953e14fb8fdda2469aa298969052f06e946115a1826116269660016116189501815561182f565b81546001600160a01b038a811660039390931b83811b91901b19909116179091555f9081526005602052604090206115dc9060043590611a9f565b6004355f525f602052600460405f20016115f68154611ad3565b9055611603600b54611ad3565b600b5560405197606089526060890191611af5565b918683036020880152611af5565b4260408501526001600160a01b03909216926004359281900390a3005b015190508c8061150a565b90600285015f5260205f20915f5b601f19851681106116ab57508360a09361154c979693600193600597601f19811610611693575b505050811b016002850155611521565b01515f1960f88460031b161c191690558c8080611683565b9192602060018192868501518155019401920161165c565b600285015f5260205f20601f840160051c810160208510611700575b601f830160051c820181106116f55750506114e7565b5f81556001016116df565b50806116df565b0151905089806114a3565b9250600185015f5260205f20905f935b601f1984168510611765576001945083601f1981161061174d575b505050811b0160018301556114ba565b01515f1960f88460031b161c1916905589808061173d565b81810151835560209485019460019093019290910190611722565b909150600185015f5260205f20601f840160051c8101602085106117c9575b90849392915b601f830160051c820181106117bb57505061148d565b5f81558594506001016117a5565b508061179f565b60405163700a84a960e11b8152600490fd5b3461054f57602036600319011261054f576004359060025482101561054f5760209160025f527f405787fa12a823e0f2b7631cc41b3ba8828b3321ca811111fa75cd3aa3bb5ace01548152f35b805482101561050d575f5260205f2001905f90565b602435906001600160a01b038216820361054f57565b600435906001600160a01b038216820361054f57565b9181601f8401121561054f5782359167ffffffffffffffff831161054f576020838186019501011161054f57565b91908251928382525f5b8481106118c8575050825f602080949584010152601f8019910116010190565b6020818301810151848301820152016118a8565b60209060206040818301928281528551809452019301915f5b828110611903575050505090565b8351855293810193928101926001016118f5565b604090600319011261054f576004359060243590565b90600182811c9216801561195b575b602083101461194757565b634e487b7160e01b5f52602260045260245ffd5b91607f169161193c565b60c0810190811067ffffffffffffffff82111761052157604052565b67ffffffffffffffff811161052157604052565b90601f8019910116810190811067ffffffffffffffff82111761052157604052565b9060405191825f82546119c98161192d565b908184526020946001916001811690815f14611a3757506001146119f9575b5050506119f792500383611995565b565b5f90815285812095935091905b818310611a1f5750506119f793508201015f80806119e8565b85548884018501529485019487945091830191611a06565b925050506119f794925060ff191682840152151560051b8201015f80806119e8565b92919267ffffffffffffffff82116105215760405191611a83601f8201601f191660200184611995565b82948184528183011161054f578281602093845f960137010152565b8054600160401b81101561052157611abc9160018201815561182f565b819291549060031b91821b915f19901b1916179055565b5f198114611ae15760010190565b634e487b7160e01b5f52601160045260245ffd5b908060209392818452848401375f828201840152601f01601f1916010190565b8015611ae1575f190190565b7f9e7b61f58c47dc699ac88507c4f5bb9f121c03808c5676a8078fe583e46497015460405163196d0b9b60e01b81526004810192909252336024830152608060448301526001600160a01b03939260209183919086169082905f908290611b8c90608483019061189e565b6006606483015203925af1908115610544575f91611c00575b5080925f80516020611d4f8339815191525416803b1561054f57604051630f8e573b60e21b815260048101929092523360248301525f908290818381604481015b03925af1801561054457611bf75750565b6119f790611981565b90506020813d602011611c2a575b81611c1b60209383611995565b8101031261054f57515f611ba5565b3d9150611c0e565b7f9e7b61f58c47dc699ac88507c4f5bb9f121c03808c5676a8078fe583e46497015460405163196d0b9b60e01b81526004810192909252336024830152608060448301526001600160a01b03939260209183919086169082905f908290611c9d90608483019061189e565b6004606483015203925af1908115610544575f91611c00575080925f80516020611d4f8339815191525416803b1561054f57604051630f8e573b60e21b815260048101929092523360248301525f90829081838160448101611be6565b5f80516020611d4f833981519152546001600160a01b031691823b1561054f57604051635ca4b5b160e11b815260048101929092526001600160a01b03166024820152905f90829081838160448101611be656fe9e7b61f58c47dc699ac88507c4f5bb9f121c03808c5676a8078fe583e4649700a2646970667358221220bc20e25a976798c745f31c586494239708fac177e6cdbe9453a70dd6d5c6137064736f6c63430008180033",
  "linkReferences": {},
  "deployedLinkReferences": {}
}